:020000040800F2
:10000000581300209D010008E51D00086B0E000834
:10001000E11D0008E10B0008272E00080000000089
:10002000000000000000000000000000892500081A
:10003000E50B000800000000451F000885290008A6
:10004000B7010008B7010008B7010008B7010008B0
:10005000B7010008B7010008B7010008B7010008A0
:10006000B7010008B7010008B7010008B701000890
:10007000B7010008B7010008B7010008B701000880
:10008000B7010008B7010008B7010008B701000870
:10009000B7010008B7010008B7010008B701000860
:1000A000B7010008B7010008B7010008B701000850
:1000B000B7010008E9290008B7010008B7010008E6
:1000C000B7010008B7010008B7010008B701000830
:1000D000B7010008F92B0008B7010008B7010008B4
:1000E000B7010008B7010008B701000800F002F8E6
:1000F00000F045F80AA090E8000C82448344AAF17D
:100100000107DA4501D100F03AF8AFF2090EBAE87A
:100110000F0013F0010F18BFFB1A43F0010318473B
:1001200088C30000A8C30000103A24BF78C878C173
:10013000FAD8520724BF30C830C144BF04680C60ED
:10014000704700000023002400250026103A28BF35
:1001500078C1FBD8520728BF30C148BF0B60704739
:10016000642900F0BD80782900F0F680632900F052
:10017000F382002070471FB51FBD10B510BD00F001
:100180002DFB1146FFF7F7FF03F074FA00F04BFB6D
:1001900003B4FFF7F2FF03BC02F0C3FF0948804736
:1001A00009480047FEE7FEE7FEE7FEE7FEE7FEE759
:1001B000FEE7FEE7FEE7FEE704480549054A064B71
:1001C0007047000089290008ED000008580D002044
:1001D00058130020580F0020580F0020704710B50A
:1001E0004C1084EA530404D54042C1F1000138BFE9
:1001F000491E1B4204D55242C3F1000338BF5B1EA7
:1002000000F0C5F914F0804F04D04042C1F1000164
:1002100038BF491E14F0004F04D05242C3F100030E
:1002200038BF5B1E10BD00000FB4044910B503AA0F
:10023000029800F09DFA10BC5DF814FBC800002085
:1002400070B5044685690068C10601D5302600E016
:100250002026C00707D070BDD4E901213046904761
:10026000206A401C20626D1EF6D570BD70B5044634
:1002700085690078C00707D170BDD4E9012120202D
:100280009047206A401C20626D1EF6D570BD70B587
:100290000C460546012A05D02878800600D5EA6973
:1002A000002302E0012305E05B1C934202D2E05CE4
:1002B0000028F9D1A869E618C01AA861286A18446C
:1002C00028622846FFF7BCFF04E0D5E9012114F8B5
:1002D000010B9047B442F8D32846FFF7C7FF70BD23
:1002E0002DE9F0410646002410687529314616A50F
:1002F00010D0AFF30080002802DA404213A507E0D7
:1003000031688A0701D512A502E0490704D511A575
:10031000012401E0AFF3008000210A2206F1240746
:1003200009E0B0FBF2FCB0FBF2F302FB1C00303042
:1003300078541846491C0028F3D123462A463046F3
:10034000BDE8F04100F0A5B9000000002D0000005C
:100350002B0000002000000070B504460D46214629
:100360001068AFF300802188090502D50F4A7A444E
:1003700002E00E4A7A440E32002104F1240305E023
:1003800000F00F060009965D5E54491C0028F7D165
:1003900020780023000704D5702D02D009B1022374
:1003A00011322046BDE8704000F073B96AC0000009
:1003B0002DE9F05F894604464FF0000ADFF874B17A
:1003C000FB44C0F820A02046E1688847002874D08C
:1003D000252806D0D4E901219047206A401C2062DC
:1003E000F1E700265F462046E16888472028054659
:1003F00007DB312D05D2781910F8200C08B106431F
:10040000F1E7B00701D526F00406C4F81CA00027C8
:10041000C4F818A02A2D09D0284602F07BFE38B374
:1004200004EB8708303DC8F8185019E059F8041B50
:10043000204604EB87029161E1688847012F054659
:1004400018D1E069002820DA26F020061DE0D8F84F
:10045000180000EB800005EB40003038C8F81800A9
:100460002046E1688847054602F054FE0028EED198
:10047000012F0AD02E2D08D12046E16888477F1C25
:100480000546022F46F02006C4DBA069002803DAE7
:10049000404246F00106A061F00701D026F01006A8
:1004A0006C2D0BD0682D09D04C2D39D06A2D35D04C
:1004B000742D35D07A2D33D016E038E0E1682F4620
:1004C00020468847B842054609D16C2F26D04FF404
:1004D0008060E168064320468847054604E06C2FAB
:1004E0001AD04FF4807006430DB3A5F141001928CE
:1004F00002D8203546F400664A4629462046266042
:100500004E46FFF72DFE80B101280BD0F61D26F0D8
:10051000070000F1080956E74020E4E78020D8E70B
:100520000020D6E706F104094DE7284652E7206A85
:10053000BDE8F09F40C000004FF0000200B5134638
:1005400094469646203922BFA0E80C50A0E80C50F3
:10055000B1F12001BFF4F7AF090728BFA0E80C50A4
:1005600048BF0CC05DF804EB890028BF40F8042B9D
:1005700008BF704748BF20F8022B11F0804F18BF0A
:1005800000F8012B7047704770477047704753EA77
:10059000020C00F069802DE9F04B4FF00006002BB3
:1005A0001FBFB3FA83F503FA05F424FA05F65E409B
:1005B00012BF1643B2FA82F502FA05F4C5F120051E
:1005C0001EBF22FA05FC44EA0C04203556EA044C0E
:1005D0004FEA144418BF641C4FF000084FF00009A4
:1005E000904271EB030C39D3002919BFB1FA81F79E
:1005F00001FA07F6B0FA80F700FA07F6C7F120070C
:100600001EBF20FA07FC46EA0C062037B6FBF4FCB6
:10061000A7EB0507103F07F01F0BCBF120060CFAE4
:100620000BFB2CFA06F644BFB3460026202FA4BFCE
:100630005E464FF0000B5BEA060C08BF4FF0010B63
:1006400019EB0B09ABFB027C48EB0608C01B06FB51
:1006500002CC0BFB03CC71EB0C01C1E70B4602464D
:1006600041464846BDE8F08B13B54FF000004FF00F
:100670000001AFF30080BDE81C40704710B500F0EA
:100680008DF8006810BD10B5044600F087F80460CE
:1006900010BD2DE9F0470D4699469246044600F1FB
:1006A00024080168880604D5E06921F01001216062
:1006B00000E00120A84201DD471B00E00027A169FE
:1006C0007A1902EB0900081AA0612078C00602D44A
:1006D0002046FFF7B5FD002608E0D4E901211AF80D
:1006E00006009047206A401C761C20624E45F4DBD1
:1006F0002078C0060AD52046FFF7A2FD06E0D4E91F
:10070000012130209047206A401C2062381EA7F14A
:100710000107F4DC07E0D4E9012118F8050090474F
:10072000206A401C2062281EA5F10105F3DC20464A
:10073000FFF79CFD2078000602D50220BDE8F08777
:100740000120FBE710B5436913B1AFF3008001E06E
:10075000FFF79DFD012010BD127800F124010A7001
:1007600000224A700122EDE711684FF0FF32E9E7FD
:10077000074B70B50D467B4400F019F80446284637
:1007800000F028F810B14FF0FF3070BD204670BD6A
:10079000D72E000000487047F80C00200048704732
:1007A000F80C002001694A1C02610878704700B506
:1007B0008FB0CDE901310021059105497944CDE99A
:1007C000031011466846FFF7F3FD0FB000BD0000AF
:1007D000E5FFFFFF007B00F0800070477546FFF7E4
:1007E000D9FFAE4605006946534620F0070085460E
:1007F00018B020B5FFF7E0FCBDE820404FF0000640
:100800004FF000074FF000084FF0000B21F00701F8
:10081000AC46ACE8C009ACE8C009ACE8C009ACE83B
:10082000C0098D46704710B50446AFF300802046DE
:10083000BDE81040FFF7ACBC10B500200F490860C0
:100840000F48006820F470400D49086008460068B1
:1008500040F44050086000200A49C1F8AC01022071
:1008600002F0D0FE012005490860022002F0CAFE15
:1008700000200449C1F8A80110BD0000A881214250
:10088000040C01400080214208B50121082001F03C
:10089000C1FB4FF44060ADF8000010208DF803005C
:1008A00003208DF802006946044800F0FEF901209B
:1008B000034908600349C1F8AC0108BD000C0140C0
:1008C000A88121420080214210B500200F49086014
:1008D0000F48006820F470400D4908600846006821
:1008E00040F44050086001200A49C1F8AC010220E0
:1008F00002F088FE012005490860022002F082FE15
:1009000000200449C1F8A80110BD0000A8812142BF
:10091000040C01400080214270B5054600241748B0
:10092000006820F47040154908600846006840F4EB
:1009300000400860002616E00020114908600220EF
:1009400002F060FE01200F49C1F8A8016006040E04
:100950000B487C38006808B1601CC4B2012002F06A
:1009600051FE701CC6B2082EE6DB15B9FFF7ACFFCE
:1009700001E0FFF761FF204670BD0000040C01405C
:10098000A88121420080214270B5044615480068C4
:1009900020F47040134908600846006840F4405055
:1009A0000860002010490860002517E0E0090E49A2
:1009B000091D08606006040E022002F023FE0120DB
:1009C0000A49C1F8A801022002F01CFE00200649D5
:1009D0000860022002F016FE681CC5B2082DE5DB97
:1009E00070BD0000040C0140A8812142008021421A
:1009F00010B50F48006820F470400D4908600846A3
:100A0000006840F44050086001200A4908600A4923
:100A1000C1F8A801042002F0F5FD00200549086096
:100A2000042002F0EFFD00200349C1F8A80110BD29
:100A3000040C0140AC8121420080214210B50F48D6
:100A4000006820F470400D4908600846006840F4D2
:100A50004050086000200A4908600A49C1F8AC010A
:100A6000042002F0CFFD0120054908600549C1F8C6
:100A7000AC01042002F0C6FD10BD0000040C0140D2
:100A8000A88121420080214210B50024144800684A
:100A900020F47040124908600846006840F40040A5
:100AA000086001200F49086002F0ACFD01200E49EA
:100AB000C1F8A80102F0A6FD07E0601CC4B2FA2C40
:100AC00003DDFFF7BBFF012010BD0648803800683A
:100AD0000028F2D10349091F086000BFF4E70000B5
:100AE000040C0140AC812142008021422DE9F041FB
:100AF0000746884615461E460024FFF779FF38460C
:100B0000FFF742FFFFF7C0FF4046FFF73DFFFFF74B
:100B1000BBFFFFF76DFF47F00100FFF735FFFFF761
:100B2000B3FF00BF0CE0681EA04204D10020FFF715
:100B3000F3FE305503E00120FFF7EEFE3055641C54
:100B4000AC42F0DBFFF77AFFBDE8F08170B50446F8
:100B50000D460026FFF74CFF2046FFF715FFFFF775
:100B600093FF2846FFF710FFFFF78EFFFFF740FFC8
:100B700044F00100FFF708FFFFF786FF0020FFF7B2
:100B8000CBFE0646FFF75AFF304670BD70B50646ED
:100B90000C461546FFF72CFF3046FFF7F5FEFFF732
:100BA00073FF2046FFF7F0FEFFF76EFF2846FFF7C2
:100BB000EBFEFFF769FFFFF741FF70BD10B503467D
:100BC00007E018780C78A04201D0002010BD5B1C13
:100BD000491C101EA2F10104A2B2F2D10120F5E7D6
:100BE00000BFFEE770472DE9F04706460F469046E6
:100BF00099460025444641E07A1B91B2321B90B2DF
:100C00004A4600F008FA7A1B91B2321990B24A466D
:100C100000F001FA3A1991B2721B90B24A4600F004
:100C2000FAF93A1B91B2721B90B24A4600F0F3F9FE
:100C30007A1991B2321990B24A4600F0ECF93A1B97
:100C400091B2721990B24A4600F0E5F93A1991B2A0
:100C5000721990B24A4600F0DEF97A1991B2321B4D
:100C600090B24A4600F0D7F96D1C05FB05F004FB75
:100C7000040108FB08F0814200DD641EA542BBDDD3
:100C8000BDE8F0872DE9F04106460F461546984627
:100C9000012406E0E2B2434639463046FFF7A3FF9F
:100CA000641CAC42F6DBBDE8F0812DE9F041024660
:100CB00000250026002000230024002791F803C00F
:100CC0000CF00F0591F803C00CF0100CBCF1000FF4
:100CD00003D091F802C04CEA050591F800C0BCF1C0
:100CE000000F31D0146800202BE04FF0010C0CFAFB
:100CF00000F3B1F800C00CEA03069E4220D1830045
:100D00004FF00F0C0CFA03F7BC4305FA03FC4CEA56
:100D1000040491F803C0BCF1280F06D14FF0010C78
:100D20000CFA00FCC2F814C00AE091F803C0BCF150
:100D3000480F05D14FF0010C0CFA00FCC2F810C0AE
:100D4000401C0828D1D31460B1F800C0BCF1FF0FDB
:100D500034DD546800202EE000F1080C4FF001084B
:100D600008FA0CF3B1F800C00CEA03069E4221D148
:100D700083004FF00F0C0CFA03F7BC4305FA03FC99
:100D80004CEA040491F803C0BCF1280F05D100F12E
:100D9000080C08FA0CF8C2F8148091F803C0BCF1F2
:100DA000480F07D100F1080C4FF0010808FA0CF8C1
:100DB000C2F81080401C0828CED35460BDE8F081F2
:100DC000F0B50A46002300240021002500F000466B
:100DD000B6F1004F02D11D4EF16901E01B4E716862
:100DE000C0F3034583B200F44016B6F5401F08D1A6
:100DF00021F07061154E766826F07066134F7E60A4
:100E000012E000F48016B6F5801F06D1032606FA1C
:100E100005F4A14341F0706106E0460D360103FA86
:100E200006F6B14341F0706122B1460D360103FA76
:100E300006F6314300F00046B6F1004F02D1034EF2
:100E4000F16101E0014E7160F0BD00000000014061
:100E50000246002093680B400BB1012000E0002007
:100E60007047416170470161704700BFFEE70000B5
:100E700010B52848007820B1012810D0022845D1AB
:100E80003BE001212448FFF7E3FF10B10120214995
:100E900008700020214908702149087037E00121BD
:100EA0001D48FFF7D5FFD0B11D48007810B90120CB
:100EB0001B49087019480078401C184908700846FA
:100EC0000078642818DD02201649087000201349B4
:100ED00008701349087002200E4908700CE0104891
:100EE0000078012805D10F490870022009490870CF
:100EF00002E000200749087009E001210648FFF7D9
:100F0000A7FF10B900200349087000E000BF00BF30
:100F100010BD000014000020000801405600002011
:100F200057000020160000202DE9F04107460C462E
:100F300015461E462A2000F0DFFE384600F0CCFEA3
:100F4000284600F0C9FE2B2000F0D6FE04F118015F
:100F500088B200F0C1FE06F1180188B200F0BCFEB4
:100F60002C2000F0C9FEBDE8F0812DE9FF4F85B0CF
:100F700081468A460020039083460798A0EB090526
:100F80000898A0EB0A06CDF80890CDF804A0002D33
:100F900001DD012705E00DB9002702E04FF0FF3722
:100FA0006D42002E02DD4FF0010806E016B94FF049
:100FB000000802E04FF0FF387642B54201DD2C46D2
:100FC00000E03446002004901EE0019A91B2029A9B
:100FD00090B2129A00F01FF8039828440390B3448B
:100FE0000398A04205DD0398001B03900298384443
:100FF0000290A34504DDABEB040B01984044019043
:101000000498401C80B20490611C04988842DCDB88
:1010100009B0BDE8F08F70B504460D4616462B4664
:10102000224629462046FFF77FFF304600F054FE57
:1010300070BD2DE9F84305460E4617469846089CB4
:1010400033463A46314628460094FFF78EFF434622
:101050002A46314628460094FFF787FF43463A4622
:10106000414628460094FFF780FF43463A46314602
:1010700038460094FFF779FFBDE8F8832DE9F04783
:1010800006460F4614461D46DDF820A0681E83B2B2
:10109000601E82B239463046FFF746FFB8460EE082
:1010A000B14606E0504600F017FE09F101001FFAB4
:1010B00080F9A145F6DB08F101001FFA80F8A84588
:1010C000EEDBBDE8F087000008B50121082000F044
:1010D000A1FF4FF4FC70ADF8000010208DF8030064
:1010E00003208DF8020069460448FFF7DEFD4FF447
:1010F000FC710248FFF7B7FE08BD0000000C01407C
:1011000010B5FFF7E1FF40217C48FFF7AAFE6420FD
:1011100002F052FA40217948FFF7A5FE642002F060
:101120004BFA4FF480717548FFF79DFE642002F082
:1011300043FA112000F0E0FD782002F03DFAB120E2
:1011400000F0DAFD052000F0D0FD3C2000F0CDFDE0
:101150003C2000F0CAFDB22000F0CEFD052000F0DA
:10116000C4FD3C2000F0C1FD3C2000F0BEFDB320DA
:1011700000F0C2FD052000F0B8FD3C2000F0B5FDF8
:101180003C2000F0B2FD052000F0AFFD3C2000F057
:10119000ACFD3C2000F0A9FDB42000F0ADFD032023
:1011A00000F0A3FDC02000F0A7FD0E2000F09DFD83
:1011B0000E2000F09AFD042000F097FDC12000F001
:1011C0009BFDC52000F091FDC22000F095FD0D2093
:1011D00000F08BFD002000F088FDC32000F08CFDA6
:1011E0008D2000F082FD2A2000F07FFDC42000F059
:1011F00083FD8D2000F079FDEE2000F076FDC52006
:1012000000F07AFD062000F070FD362000F074FD3D
:10121000782000F06AFD3A2000F06EFD552000F0C5
:1012200064FDE02000F068FD0B2000F05EFD17205B
:1012300000F05BFD0A2000F058FD0D2000F055FD88
:101240001A2000F052FD192000F04FFD162000F08A
:101250004CFD1D2000F049FD212000F046FD262018
:1012600000F043FD372000F040FD3C2000F03DFD44
:10127000002000F03AFD092000F037FD052000F0C5
:1012800034FD102000F031FDE12000F035FD0C2090
:1012900000F02BFD192000F028FD092000F025FDAD
:1012A0000D2000F022FD1B2000F01FFD192000F092
:1012B0001CFD152000F019FD1D2000F016FD212059
:1012C00000F013FD262000F010FD392000F00DFD88
:1012D0003E2000F00AFD002000F007FD092000F08C
:1012E00004FD052000F001FD102000F0FEFC782038
:1012F00002F062F9292000F0FFFC10BD000C014053
:101300002DE9FF5F80468A4617469B460F9D0020C9
:101310000290CDF80080284605EBD071C1F3470458
:101320002046E21704EB5272D2102146E31704EB79
:101330005373DB10A4EBC3030BB1012300E00023C4
:101340001A446A4392B20192A7F12000C7B20AEB95
:101350000500401E83B208EB0400401E82B25146D5
:101360004046FFF7E1FD002669E00C2D07D107EBB1
:101370004700354901EB8000805D03901BE0102D94
:1013800005D1324800EB0710805D039013E0182D63
:1013900007D107EB47002E4901EB0010805D039059
:1013A00009E0202D05D12B4800EB8710805D0390CC
:1013B00001E0BDE8FF9F4FF000093AE01098C8B97E
:1013C000012000FA09F00399084018B1584600F0CE
:1013D00083FC02E00E9800F07FFC0298401CC0B233
:1013E0000290029890FBF4F104FB1100E8B9002090
:1013F000029021E0012000FA09F00399084020B191
:101400005A4651464046FFF706FE08F101001FFA12
:1014100080F80098A8EB0000A04206D1DDF800801B
:101420000AF101001FFA80FA06E009F1010000F05C
:10143000FF09B9F1080FC1DB00BF701C86B201982B
:10144000864292DB00BFB4E7FCA3000870A8000846
:1014500060AE000830C000082DE9FE4F8046894686
:1014600017469A46DDE90D460C9D36E00C2C09D155
:1014700053463A4649464046CDE90146009500F0BC
:1014800031F825E0102C09D153463A4649464046EA
:10149000CDE90146009500F0C9F819E0182C09D1F2
:1014A00053463A4649464046CDE90146009500F08C
:1014B00059F90DE0202C09D153463A464946404699
:1014C000CDE90146009500F0F1F901E0BDE8FE8F9D
:1014D000BF1C08EB04001FFA80F838780028C5D13B
:1014E00000BFF3E72DE9FF5F0646894692469B461B
:1014F0000F9C0020039000962046E21704EB5272E6
:10150000D2102146E31704EB5373DB10A4EBC303A3
:101510000BB1012300E000231A44624392B201920E
:1015200001200290002579E005EB850000EBC50065
:101530003D4911F810009AF8001088426BD105EB74
:10154000850000EBC500384901EB400040789AF86F
:10155000011088425FD109EB0400401E83B23019AC
:10156000401E82B249463046FFF7DEFC00274FE0BE
:101570004FF0000846E0109808BB05EB850000EB33
:10158000C500294901EB4000801CC05D012101FA22
:1015900008F1084018B1584600F09EFB02E00E9892
:1015A00000F09AFB0398401CC0B20390039890FB94
:1015B000F4F104FB110008BB0020039025E005EBCB
:1015C000850000EBC500184901EB4000801CC05DA0
:1015D000012101FA08F1084020B15A464946304637
:1015E000FFF719FD701C86B20098301AA04205D191
:1015F000009E09F101001FFA80F906E008F10100E0
:1016000000F0FF08B8F1080FB5DB00BF781CC7B2C7
:1016100001988742ACDB00BF681C85B20298854206
:1016200082DBBDE8FF9F000070C000082DE9FF5F6E
:101630000646894692469B460F9C002003900096E2
:101640002046E21704EB5272D2102146E31704EB56
:101650005373DB10A4EBC3030BB1012300E00023A1
:101660001A44624392B2019213200290002571E065
:1016700005EB05103A4911F810009AF8001088425D
:1016800065D105EB0510364901EB400040789AF82A
:10169000011088425BD109EB0400401E83B230196F
:1016A000401E82B249463046FFF73EFC00274BE021
:1016B0004FF0000842E01098F8B905EB05102849F2
:1016C00001EB4000801CC05D012101FA08F10840D7
:1016D00018B1584600F000FB02E00E9800F0FCFA4A
:1016E0000398401CC0B20390039890FBF4F104FBF4
:1016F0001100F8B90020039023E005EB051018490C
:1017000001EB4000801CC05D012101FA08F1084096
:1017100020B15A4649463046FFF77DFC701C86B220
:101720000098301AA04205D1009E09F101001FFA6D
:1017300080F906E008F1010000F0FF08B8F1080F99
:10174000B9DB00BF781CC7B201988742B0DB00BF8D
:10175000681C85B2029885428ADBBDE8FF9F0000C5
:101760008AC000082DE9FF5F0646894692469B46DF
:101770000F9C0020039000962046E21704EB527263
:10178000D2102146E31704EB5373DB10A4EBC30321
:101790000BB1012300E000231A44624392B201928C
:1017A00001200290002579E005EB850000EB451053
:1017B0003D4911F810009AF8001088426BD105EBF2
:1017C000850000EB4510384901EB400040789AF85D
:1017D000011088425FD109EB0400401E83B230192A
:1017E000401E82B249463046FFF79EFB00274FE07D
:1017F0004FF0000846E0109808BB05EB850000EBB1
:101800004510294901EB4000801CC05D012101FA0F
:1018100008F1084018B1584600F05EFA02E00E9850
:1018200000F05AFA0398401CC0B20390039890FB52
:10183000F4F104FB110008BB0020039025E005EB48
:10184000850000EB4510184901EB4000801CC05D8D
:10185000012101FA08F1084020B15A4649463046B4
:10186000FFF7D9FB701C86B20098301AA04205D150
:10187000009E09F101001FFA80F906E008F101005D
:1018800000F0FF08B8F1080FB5DB00BF781CC7B245
:1018900001988742ACDB00BF681C85B20298854284
:1018A00082DBBDE8FF9F000010C300082DE9FF5F49
:1018B0000646894692469B460F9C00200390009660
:1018C0002046E21704EB5272D2102146E31704EBD4
:1018D0005373DB10A4EBC3030BB1012300E000231F
:1018E0001A44624392B2019201200290002571E0F5
:1018F00005EB85103A4911F810009AF8001088425B
:1019000065D105EB8510364901EB400040789AF827
:10191000011088425BD109EB0400401E83B23019EC
:10192000401E82B249463046FFF7FEFA00274BE0E0
:101930004FF0000842E01098F8B905EB85102849EF
:1019400001EB4000801CC05D012101FA08F1084054
:1019500018B1584600F0C0F902E00E9800F0BCF94A
:101960000398401CC0B20390039890FBF4F104FB71
:101970001100F8B90020039023E005EB8510184909
:1019800001EB4000801CC05D012101FA08F1084014
:1019900020B15A4649463046FFF73DFB701C86B2DF
:1019A0000098301AA04205D1009E09F101001FFAEB
:1019B00080F906E008F1010000F0FF08B8F1080F17
:1019C000B9DB00BF781CC7B201988742B0DB00BF0B
:1019D000681C85B2029885428ADBBDE8FF9F000043
:1019E0005AC300082DE9FF4F85B0074690461C46B4
:1019F000DDE91396304606EBD071C1F3470B214960
:101A0000404604F0EFFC039004F080FC80B20490A8
:101A1000002531E0601B401EC1B20A2002F070FFB9
:101A20000499B1FBF0F00A21B0FBF1F201FB120ABC
:101A3000A01EA84210D10020A11E01FB0B71CDE910
:101A40000096029088B22E22129B0699FFF758FC4E
:101A5000681CC5B2601CC4B200200AF13001CAB2D1
:101A600005FB0B71CDE90096029088B2129B069996
:101A7000FFF746FC681CC5B2A542CBDB09B0BDE848
:101A8000F08F00000000C8422DE9FF4F83B00646EA
:101A90008A461446DDE910750920B0EB241F04DAEC
:101AA0000A20C0EB2410413001E02011303000F05A
:101AB000FF0804F00F00092803DD04F00F003730A1
:101AC00002E004F00F00303000F0FF090020CDE903
:101AD00000750290424651463046069BFFF710FCC7
:101AE0000020AB4605EBDB7106EB6101CDE900752B
:101AF000029088B24A465146069BFFF701FC07B0A8
:101B0000BDE8F08F2DE9FF4F85B0074691461D4691
:101B1000DDE913A600200490304606EBD071C1F336
:101B2000470B002434E0281B401EC1B20A2002F0FB
:101B3000E7FEB9FBF0F00A21B0FBF1F201FB12085D
:101B40000498A0B9681EA04211DDB8F1000F0CD1B5
:101B5000002004FB0B71CDE900A6029088B2202280
:101B6000129B0699FFF7CCFB10E0012004900020A7
:101B700008F13001CAB204FB0B71CDE900A6029056
:101B800088B2129B0699FFF7BBFB00BF601CC4B272
:101B9000AC42C8DB09B0BDE8F08F2DE9FF4F85B03E
:101BA000074691461D46DDE913A600200490304605
:101BB00006EBD071C1F3470B002434E0281B401E14
:101BC000C1B20A2002F09CFEB9FBF0F00A21B0FB82
:101BD000F1F201FB12080498A0B9681EA04211DDC1
:101BE000B8F1000F0CD1002004FB0B71CDE900A669
:101BF000029088B23022129B0699FFF781FB10E019
:101C000001200490002008F13001CAB204FB0B71DE
:101C1000CDE900A6029088B2129B0699FFF770FBEF
:101C200000BF601CC4B2AC42C8DB09B0BDE8F08F95
:101C30002DE9F05F0746884615461E46DDF82890D8
:101C4000002408EB0600401E83B27819401E82B2C1
:101C500041463846FFF768F9A24618E04FF0000BFE
:101C60000FE019F8140000F040F8012101EB4401E5
:101C700019F8010000F039F8641C0BF101001FFA9B
:101C800080FBB345EDDB0AF101001FFA80FAAA459B
:101C9000E4DBBDE8F09F2DE9FE4F06460F461446F3
:101CA0009846DDE90D5ADDF8309010E0CDE9015A93
:101CB000CDF800902278434639463046FFF720FBA6
:101CC000284605EBD07106EB61018EB2641C2078CA
:101CD0000028EBD1BDE8FE8F10B50446201200F0BD
:101CE0001BF8E0B200F018F810BD10B5044620460D
:101CF00000F012F810BD000010B504461021054890
:101D0000FFF7AFF8204600F007F810210148FFF771
:101D1000AAF810BD000C014070B50446802112489D
:101D2000FFF79FF8002517E008210F48FFF799F803
:101D300004F0800020B120210B48FFF794F803E065
:101D400020210948FFF78DF808210748FFF78BF895
:101D50006006040E681CC5B2082DE5DB8021024830
:101D6000FFF781F870BD0000000C014008B50121AB
:101D7000112000F04FF901211648FFF721F84FF428
:101D80000050ADF8000010208DF8030003208DF8FE
:101D9000020069461048FEF788FF4FF400510E48D4
:101DA000FFF761F80121092000F034F94FF4807049
:101DB000ADF8000010208DF8030003208DF802001C
:101DC00069460648FEF771FF4FF480710348FFF73C
:101DD0004AF808BD0002300000100140000C01402C
:101DE00000BFFEE77047000070B5002100230F22FE
:101DF000C47804B3154C246804F4E064C4F5E064CA
:101E0000210AC1F10403CA40447804FA03F184783A
:101E10001440214309010E4C0678A155047804F0C2
:101E20001F050124AC4005786D11AD0005F1E025DA
:101E3000C5F8004109E0047804F01F050124AC4016
:101E4000044D0678761145F8264070BD0CED00E093
:101E500000E400E080E100E002490143024A116031
:101E6000704700000000FA050CED00E02D48006806
:101E7000FF2803D301202C49087051E0294800684D
:101E8000401E2A49085C232847D126480068801E46
:101E9000085C302841D100202549086013E0234820
:101EA00023490968405C2349214A1268895C8842B9
:101EB00005D11F480068401C1D49086003E002204E
:101EC0001949087005E01A4800681B4909788842DA
:101ED000E5D300BF164800681749097888421FD12A
:101EE00015480078154908600FE010481349096843
:101EF000405C12490968104A1278891A104A5054F5
:101F00000E480068401C0D49086006480068801EA5
:101F10000A4909688842E8D802E0022002490870AC
:101F2000704700006800002071000020C80A0020EF
:101F3000CC0000207200002077000020D00000209C
:101F4000C80B00207047000070B506460D460024FF
:101F5000701E04EBC034F5B9204600F07BFA04F59E
:101F6000805000F077FA04F5005000F073FA04F5A1
:101F7000405000F06FFA04F5804000F06BFA04F571
:101F8000A04000F067FA04F5C04000F063FA04F5E1
:101F9000E04000F05FFA04EB05240DB90E2000E0EC
:101FA000D420104908600846008882B221460E48B5
:101FB00000F0E0F80B48008882B221460B4800F0A0
:101FC000AFF80848008882B208490748FEF7F6FDD6
:101FD0000749087008460078012801D1002070BD2B
:101FE0000120FCE750000020040100200402002032
:101FF0002400002029B1064AD2690243044BDA6169
:1020000004E0034AD2698243014BDA617047000061
:102010000010024029B1064A92690243044B9A61BA
:1020200004E0034A92698243014B9A6170470000C1
:102030000010024030B500210022002400232D4D65
:102040006D6805F00C0121B1042905D0082923D1C0
:1020500005E0294D056022E0274D05601FE0254D74
:102060006D6805F47012234D6D6805F48034022507
:1020700005EB92421CB9214D554305600BE01D4D07
:102080006D6805F400351DB11C4D5543056002E037
:10209000194D5543056002E0174D056000BF00BFB4
:1020A000144D6D6805F0F0010909154D6B5C05686C
:1020B000DD4045600F4D6D6805F4E061090A104D83
:1020C0006B5C4568DD4085600A4D6D6805F46051C4
:1020D000C90A0B4D6B5C4568DD40C560054D6D68F8
:1020E00005F44041890B074D6B5CC568B5FBF3F502
:1020F000056130BD0010024000127A0000093D0069
:10210000EC000020FC00002021B1028842F04002D7
:10211000028004E002884FF6BF731A4002807047C5
:1021200070B505460C4616464FF480511048FEF730
:1021300098FE032000F0B2F9C4F3074000F0AEF9B6
:10214000C4F3072000F0AAF9E0B200F0A7F904E018
:10215000FF2000F0A3F928706D1C301EA6F10101CC
:102160008EB2F5D14FF480510148FEF77CFE70BD70
:10217000000C01402DE9F05F07460E4614464FF073
:102180000008C146C2460025AB4606F0FF0ACAF168
:102190000000C5B22046E11704EB1161C1F3072826
:1021A000E11704EB11610912A4EB012101F0FF0911
:1021B000BAF1000F20D1B8F1000F05D12246314607
:1021C000384600F0CBF864E009E04FF48072314605
:1021D000384600F0C3F806F5807607F58077B8F149
:1021E0000000A8F1010101F0FF08EED14A46314696
:1021F000384600F0B3F84CE0B8F1000F18D1A9450B
:1022000010DDA9EB050000F0FF0B2A4631463846E9
:1022100000F0A4F82E442F445A463146384600F0C8
:102220009DF836E022463146384600F097F830E017
:10223000601B84B22046E11704EB1161C1F307284B
:10224000E11704EB11610912A4EB012101F0FF0970
:102250002A463146384600F081F82E442F4409E0E2
:102260004FF480723146384600F078F806F58076F3
:1022700007F58077B8F10000A8F1010101F0FF082F
:10228000EED1B9F1000F04D04A463146384600F08D
:1022900065F8BDE8F09F000000B587B00121082077
:1022A000FFF7B8FE01218803FFF7A4FE4FF40050AA
:1022B000ADF8040003208DF8060018208DF8070003
:1022C00001A92448FEF7F1FC4FF48040ADF804006A
:1022D00001A92048FEF7E9FC4FF40040ADF80400E6
:1022E00001A91C48FEF7E1FC4FF48050ADF8040052
:1022F00010208DF8070001A91648FEF7D6FC4FF410
:1023000080511448FEF7AFFD0020ADF808004FF4EF
:102310008270ADF80A000020ADF80C000220ADF884
:102320000E000120ADF810004002ADF812000820A8
:10233000ADF814000020ADF816000720ADF8180025
:1023400002A9054800F002F901210348FFF7DCFE6D
:1023500007B000BD000C01400038004070B50546D4
:102360000C46164600F0D2F84FF480511348FEF7A1
:1023700078FD022000F092F8C4F3074000F08EF8D8
:10238000C4F3072000F08AF8E0B200F087F8B6F551
:10239000807F01DD4FF4807603E0287800F07EF83E
:1023A0006D1C301EA6F101018EB2F6D14FF48051A2
:1023B0000248FEF758FD00F08DF870BD000C01409A
:1023C00010B500244FF480510C48FEF74AFDAB20B5
:1023D00000F064F8FF2000F061F8FF2000F05EF8E4
:1023E000FF2000F05BF8FF2000F058F804464FF49F
:1023F00080510248FEF737FD204610BD000C014019
:102400002DE9F04100240025002600274FF48051DB
:102410000F48FEF726FD9F2000F040F8FF2000F057
:102420003DF80546FF2000F039F80646FF2000F091
:1024300035F807464FF480510548FEF714FD28048F
:1024400040EA062040EA07042046BDE8F08100008B
:10245000000C014010B5044600F058F800F03AF8BE
:102460004FF480510C48FEF7FCFC202000F016F8D9
:10247000C4F3074000F012F8C4F3072000F00EF890
:10248000E0B200F00BF84FF480510348FEF7EBFC8C
:1024900000F020F810BD0000000C014010B504460B
:1024A00000BF02210A4800F043F80028F9D0214675
:1024B000074800F049F800BF0121054800F038F84E
:1024C0000028F9D0024800F03CF8C0B210BD00006E
:1024D0000038004010B500244FF480510A48FEF740
:1024E000C0FC0520FFF7DAFF00BFFF20FFF7D6FF93
:1024F000044604F001000028F7D14FF4805102484F
:10250000FEF7B1FC10BD0000000C014010B54FF407
:1025100080510648FEF7A5FC0620FFF7BFFF4FF4E9
:1025200080510248FEF79FFC10BD0000000C0140E6
:102530000246002013890B400BB1012000E000206F
:1025400070470146888970478181704710B5002225
:10255000028802F441520B884C8823438C88234321
:10256000CC8823430C8923434C8923438C89234300
:10257000CC8923431A430280838B4FF2FF7423409C
:1025800083830B8A038210BD704700000EB54FF69F
:10259000FF705023A022002100900846FEF76EFD38
:1025A000002010214FF6FF724FF47843CDE900214F
:1025B000029027A201460520FFF76DFB2848102353
:1025C0001A46002100909020FFF732FB2548202377
:1025D0001022192100908C20FFF72AFB2248282383
:1025E0002422122100905F20FFF722FB1F481C23AA
:1025F00028221E2100902D20FFF71AFB1C482623BD
:102600002122142100900520FFF712FB00F036F87C
:102610000C204FF6FF7145F25842CDE9002102909F
:102620001448006882B2012341218F20FFF76AFA23
:1026300000200C214FF6FF7245F25843CDE90021EE
:1026400002900DA241219520FFF725FB0EBD000051
:102650005A6F6F6D6558706C6F72652E636E0000F7
:10266000FCA100089A8500085A7A00089A710008AF
:10267000CE670008280000204D0000000EB50120A4
:1026800010214FF6FF72CDE9002102903F490988E1
:1026900001EB8101142202EBC101C91C88B24FF485
:1026A00078433BA23A21FFF7F6FA012010214FF6BA
:1026B000FF72CDE9002102903449098801EB8101C4
:1026C000142202EBC101C91C88B24FF4784330A236
:1026D0003B21FFF7E0FA4FF6FF703B2327223A2118
:1026E00000900420FEF7A5FC4FF6FF703B23562216
:1026F0003A2100902C20FEF79CFC4FF6FF703B2304
:1027000084223A2100905E20FEF793FC4FF6FF7082
:102710003A239D22392100908B20FEF78AFC1B482A
:10272000006848B94FF478403B2327223A210090B3
:102730000420FEF77EFC28E014480068012809D137
:102740004FF478403B2356223A2100902C20FEF78C
:1027500070FC1AE00D480068022809D14FF4784057
:102760003B2384223A2100905E20FEF762FC0CE0BD
:1027700006480068032808D14FF478403A239D2288
:10278000392100908B20FEF754FC0EBD2C00002058
:102790005E00000010B504460BE000BF4021074872
:1027A00000F06FFA0028F9D02178044800F037FBD8
:1027B000641C20780028F0D110BD000000380140D2
:1027C00010B500F001F810BD0CB50020019000908C
:1027D0003348006840F480303149086000BF304819
:1027E000006800F4003000900198401C01900098AF
:1027F00018B90198B0F5A06FF1D12948006800F42C
:10280000003010B10120009001E0002000900098FD
:10281000012843D12348006840F010002149086096
:102820000846006820F0030008600846006840F091
:10283000020008601A484068194948600846406824
:1028400048600846406840F4806048600846406838
:1028500020F47C1048600846406840F4E810486066
:102860000846006840F08070086000BF0C480068AF
:1028700000F000700028F9D00948406820F00300FB
:10288000074948600846406840F00200486000BFC1
:102890000348406800F00C000828F9D10CBD000086
:1028A00000100240002002403EB505464F239F2203
:1028B00000210846FEF738FB012404E021462846A3
:1028C00000F014F8641C812CF8DB10204FF6FF7127
:1028D00045F25842CDE900210290A81E82B203239E
:1028E00000218720FFF759F93EBD00002DE9F04394
:1028F000B3B006460D4600274FF480780024701EC2
:1029000007EBC037424607EB05211348FFF708FCE9
:10291000002006E0104A00F10A01515C01AA11549E
:10292000401CC828F6DB4FF000090EE0012101EB46
:10293000440101AA505CFFF7D8F901A911F814006D
:10294000FFF7D3F9641C09F10109B9F1640FEDDB5C
:1029500033B0BDE8F083000004020020042808D151
:102960004FF0E021096941F004014FF0E0221161CC
:1029700007E04FF0E021096921F004014FF0E02267
:10298000116170477047000010B51348006840F0AF
:1029900001001149086008464068104908400E4986
:1029A0004860084600680E4908400B490860084620
:1029B000006820F4802008600846406820F4FE008B
:1029C00048604FF41F008860FFF7FAFE4FF0006088
:1029D0000449086010BD0000001002400000FFF82C
:1029E000FFFFF6FE08ED00E010B50121154800F0EC
:1029F00046F830B314480078401C13490870134857
:102A00000088401C114908800F480078052804DD23
:102A1000FEF72EFA00200C4908700C480088B0F52B
:102A2000FA7F0ADD0A4A0B490B4800F077FC0120C7
:102A30000A4908700020054908800121014800F07A
:102A40000FF810BD00040040580000205A0000207C
:102A500040000020380000203C0000201900002029
:102A6000CA430282704721B1028842F0010202800B
:102A700004E002884FF6FE731A400280704730B5BA
:102A80000246002000230024158A05EA01039589E7
:102A900005EA010413B10CB1012000E0002030BDB3
:102AA0001AB183890B43838102E083898B4383813D
:102AB00070470000002202881D4B98420ED01D4B2B
:102AC00098420BD0B0F1804F08D01B4B984205D0F4
:102AD0001A4B984202D01A4B984204D14FF68F738A
:102AE0001A404B881A43174B984207D0164B98420E
:102AF00004D04FF6FF431A40CB881A4302808B88DC
:102B000083850B8803850A4B98420BD0094B98426A
:102B100008D00E4B984205D00D4B984202D00D4B79
:102B2000984201D10B7A038601238382704700000B
:102B3000002C014000340140000400400008004027
:102B4000000C004000100040001400400040014014
:102B500000440140004801407FB505460C46012174
:102B60000220FFF747FA0020ADF80A00ADF8060092
:102B7000ADF80850ADF8044001A90E48FFF79AFFE0
:102B8000012211460B48FFF78BFF1D208DF8000036
:102B900001208DF8010002208DF8020001208DF83F
:102BA00003006846FFF720F901210248FFF75BFFA9
:102BB0007FBD00000004004010B50B4800F02AF96A
:102BC000C1B20A4802680068401C084B18600848F7
:102BD000815408480078032804D10348008802483B
:102BE000001D008810BD0000003801406800002072
:102BF000C80A00207100002010B540F225510B4892
:102C000000F04CF808B1FFF7D7FF2821074800F083
:102C100045F808B100F00CF840F22441034800F0F8
:102C20003DF808B100F00AF810BD0000003801407E
:102C30000320014908707047710000200448008893
:102C40000348001D008801200249087070470000F9
:102C5000003801407000002001F40072B2F5007FDE
:102C600000D100BFCA430280704721B1828942F47B
:102C70000052828104E082894DF6FF731A408281FE
:102C8000704702460020B1F5007F00D100BF1388D5
:102C90000B400BB1012000E00020704770B50246E8
:102CA000002400230025002040F66A16B14200D11E
:102CB00000BFC1F3421501F01F03012606FA03F31A
:102CC000012D02D19689334006E0022D02D1168AE9
:102CD000334001E0968A33400C12012606FA04F4D0
:102CE0001688344013B10CB1012000E0002070BD03
:102CF000F0B50346002400260025002040F66A17A0
:102D0000B94200D100BF1846C1F3421401F01F06BA
:102D1000012707FA06F5012C01D10C3004E0022C42
:102D200001D1103000E014301AB107682F4307605A
:102D300002E00768AF430760F0BD00002DE9F047EF
:102D400086B005460E460024A24600BFA1460027D5
:102D5000B08900B100BF2F462C8A4CF6FF700440AA
:102D6000F08804432C82AC894EF6F3100440B088FE
:102D700031890843718908430443AC81AC8A4FF61A
:102D8000FF400440B0890443AC8201A8FFF752F928
:102D90001F48874202D1DDF810A001E0DDF80CA049
:102DA000A88900F4004040B10AEBCA0000EB0A1009
:102DB00031684900B0FBF1F807E00AEBCA0000EB0C
:102DC0000A1031688900B0FBF1F86420B8FBF0F01C
:102DD00004012009642101FB1089A88900F4004046
:102DE00040B1322000EBC900B0FBF1F000F0070069
:102DF000044308E0322000EB09106421B0FBF1F03D
:102E000000F00F0004432C8106B0BDE8F0870000FD
:102E10000038014001468888C0F308007047C1F3BC
:102E200008028280704700BFFEE7000010B586B040
:102E30000446012144F20500FFF7ECF84FF400705E
:102E4000ADF8140003208DF8160018208DF8170037
:102E500005A92648FDF729FF4FF48060ADF814005E
:102E600004208DF8170005A92048FDF71EFF4FF438
:102E7000C060FEF7F1FF25208DF8000000208DF8DE
:102E800001008DF8020001208DF803006846FEF76E
:102E9000ABFF01940020ADF80800ADF80A00ADF8D2
:102EA0000C00ADF810000C20ADF80E0001A9104880
:102EB000FFF744FF01210E48FFF7D7FE012240F241
:102EC00025510B48FFF714FF012240F22441084826
:102ED000FFF70EFF012228210548FFF709FF4021D7
:102EE0000348FFF7B9FE06B010BD0000000801401E
:102EF000003801401FB52D48007800283CD12C48EF
:102F000040792B4909792A4AD278294B9B78CDE917
:102F10000032CDE902102648437802784079401EFD
:102F200000EBC00404EB0010082404EBC00121A056
:102F3000FDF77AF95A202B4908705820487049202B
:102F400088705F20C870002005E019490A5C011DE7
:102F5000244B5A54401CFC28F7DB002406E0A01D3B
:102F6000134A115C20A0FDF75FF9641C102CF6DBFE
:102F70001F48FFF70FFC16E00C480078022803D129
:102F80001C48FFF707FC0EE008480078012803D131
:102F90001948FFF7FFFB06E004480078032802D138
:102FA0001648FFF7F7FB00F0C7FA1FBD71000020BD
:102FB000C80B00205A58493E52783A205B30782599
:102FC0003038585D25632563256325632C204E6FBB
:102FD0002E3A253033642C20506B674E6F3A2564AF
:102FE0000D0A000068030020253032582000000040
:102FF000B400002089000020780000209D000020FF
:10300000490050EAC12018BF04204A0D18BF40F003
:10301000010040F2FF72B2EB515F08BF40F00200C6
:10302000012808BF052070472DE9F0414F1E00EB35
:10303000C7010446D1E9000115461E4637F00602D5
:103040000DD02A46334602F0A5FC7F1E04EBC703D1
:10305000D3E9002302F024FA37F00602F1D1022F5F
:1030600025D0042F13D0062F18BFBDE8F0812A46C3
:10307000334602F08FFCD4E90A2302F011FA2A4603
:10308000334602F087FCD4E9082302F009FA2A4605
:10309000334602F07FFCD4E9062302F001FA2A4607
:1030A000334602F077FCD4E9042302F0F9F92A460A
:1030B000334602F06FFCD4E9022302F0F1F92A460C
:1030C000334602F067FCD4E90023BDE8F04102F08A
:1030D000E7B90000002213461046014902F09CBAED
:1030E0000000F03F02F0DCB9002213461046114602
:1030F00002F092BA40F2013200204FF0E04103F0BA
:1031000020BB0000024A0020110703F01ABB000098
:1031100001FDFFFF30380A2801D20120704700204E
:10312000704700BF704700002DE9F14F82B068483A
:103130008069C1174FF4FA33C41A61F10005A4FB8A
:10314000041005FB040004FB05026148B0F91000FF
:103150004FEAE07CA1FB008A02FB00A001FB0C0906
:103160005B48B0F90E00C117A0FB042301FB04313A
:1031700000FB0510400440EAD230510411EB08086E
:1031800040EB09095248B0F90C0018F1000849EB6E
:10319000C009A4FB041005FB040004FB05024C4815
:1031A000B0F90A004FEAE07CA1FB003A02FB00A064
:1031B00001FB0C004FEA132141EA00614FEA202293
:1031C0004348B0F908004FEAE073A446A0FB0CBEE8
:1031D00003FB04E300FB05304FEA003040EA1B50DC
:1031E0004FEA0B33CC1842EB0005231C45F5004C8D
:1031F0003749C8880022A3FB00A10CFB001003FB89
:1032000002014C10CD17002184EA010069400843F7
:1032100001D1BDE8FE8F0298C0F58010C7170646A1
:10322000F80740EA5600F207B2EB080160EB09022A
:1032300040F635400023A1FB00CA02FB00A001FBC1
:10324000030022462B46CDE900C060460199FCF7F9
:10325000C6FF06460F461E48B0F91600C217710B8E
:1032600041EAC74C7B13A0FB0C1A02FB0CA200FB2B
:103270000322700B40EAC74C7B13A1FB0C0A02FB34
:103280000CA201FB0321400E40EAC1144D16104868
:10329000B0F91400C117A0FB062301FB063100FBA7
:1032A0000711D00C40EA41384FEAE149311947EBA8
:1032B000050011EB080140EB0900090A41EA006131
:1032C0000348B0F9120000010E183046A1E70000D3
:1032D000C80C002030B50146CC100F4D2D88A4EB52
:1032E00045040D4DB5F902506C43E2120A4C248896
:1032F000C4EB211464432413074DB5F904506C4307
:10330000A313D418044DAC612C46A46904EB8404C7
:103310008034201230BD0000C80C00202DE9F05F81
:1033200004468946924600F04DF81F480068FFF7B2
:10333000D1FF834602F0C8FA054600221B4B02F07B
:103340006BF9074602F07AF81949086008460068E8
:1033500002F030FE07460022164B02F041FD054602
:1033600002F06CF81249086013480068FFF7DCFEB1
:10337000834602F0C0FA05460022104B02F04CF9D9
:10338000074602F05BF80E49086021460C4801F040
:10339000AFFF07480068C9F80000204600F08EF82B
:1033A000CAF80000BDE8F09FDC0000200000594092
:1033B000E400002000000440D80000200000D940B4
:1033C000E80000201CB56B460622F721EC20FDF733
:1033D0008DFB9DF8000000039DF8011040EA0110EC
:1033E0009DF8021040EA1110074908609DF803009B
:1033F00000039DF8041040EA01109DF8051040EA12
:103400001110024908601CBDD8000020DC0000201B
:1034100010B51B48007808B1012010BDFDF734FA43
:10342000142000F0C9F8D021EC20FDF78FFB1549DE
:10343000087008460078582805D10846017812A07F
:10344000FCF7F2FE06E00F48017815A0FCF7ECFE51
:103450000020E2E7184B18228821EC20FDF746FBFC
:10346000B322F421EC20FDF791FB1422F521EC208E
:10347000FDF78CFB01200249087000BFCDE700007A
:10348000D5000020D4000020424D50323830204971
:10349000442049533A20307825580D0A0000000096
:1034A000424D503238302049442045525220495331
:1034B0003A20307825580A00C80C00202DE9FF5F1B
:1034C00082460021DAF8000003F058F825D21448AB
:1034D000DAF8001002F008FE834602F06BFD114A94
:1034E000114BCDE9000101F017FA064600220F4BFF
:1034F00002F076FC4FF0C0420D4BCDE9020102F024
:1035000049FA80464FF000420A4B02F085F8044623
:1035100001F094FF04B0BDE8F09F0020FAE700003E
:10352000CDEC7D4428610C878A5AC83F0000F03FEB
:1035300066A27240BE9F7A3F10B54FF48071084872
:10354000FCF7FAFF4FF480710648FCF7F5FF002006
:1035500005490860054908600549087010BD00006C
:10356000C80A0020C80B0020680000206C00002062
:103570007100002010B56FF00400FFF7EFF90A4862
:1035800000680A49B0FBF1F0094908700846007864
:1035900000EB4001C1EBC0104FF6FF7101EAC00023
:1035A0000449088010BD00000000002000127A00CD
:1035B00000010020020100200146114A12884A43FE
:1035C0004FF0E0235A6100229A611A46126942F0D4
:1035D00001021A6100BF4FF0E022106900F0010201
:1035E0001AB100F48032002AF5D04FF0E0221269BF
:1035F00022F001024FF0E0231A6100229A61704725
:10360000020100200146114A12784A434FF0E0239C
:103610005A6100229A611A46126942F001021A6147
:1036200000BF4FF0E022106900F001021AB100F46F
:103630008032002AF5D04FF0E022126922F0010218
:103640004FF0E0231A6100229A61704700010020C8
:1036500070B504460D4600BF40210548FFF711FB39
:103660000028F9D0A1B20248FFF7D9FB204670BD6F
:10367000003801408CB001200990FFF77BFFFEF776
:1036800075FB4FF4E130FFF7D1FBFEF705FEFDF7C8
:1036900037FD4FF6FF705023A0220021009008460E
:1036A000FDF7ECFC41F61F411320FFF755FAFFF739
:1036B000AFFEFD4AFD49FE48FFF730FE4FF4FA70B9
:1036C000FFF77AFFFB49FA48006802F08BFE08908A
:1036D00002F000FEF8490860F649F448006802F07C
:1036E00081FE089002F0F6FDF4490860F149EE48C9
:1036F000006802F077FE089002F0ECFDF0490860E7
:10370000ED480168EFA0FCF78FFD6420FFF754FF40
:10371000EA480168F0A0FCF787FD6420FFF74CFF42
:10372000E7480168F1A0FCF77FFD6420FFF744FF44
:103730004FF4FA70FFF740FFDB4ADC49DC48FFF743
:10374000EDFD4FF4FA70FFF737FFDA49D84800680B
:1037500002F048FE089002F0BDFDD7490860D54947
:10376000D248006802F03EFE089002F0B3FDD34953
:103770000860D049CC48006802F034FE089002F09E
:10378000A9FDCF490860CC480168DEA0FCF74CFDDC
:103790006420FFF711FFC9480168DFA0FCF744FD72
:1037A0006420FFF709FFC6480168E0A0FCF73CFD74
:1037B0006420FFF701FF0020E14908600120E14992
:1037C00081F83F0081F84A0081F8550081F86300D4
:1037D000FEF7F6FDDC490860FEF712FEDB490860E3
:1037E000D948026808460168D9A0FCF71DFDD748F2
:1037F0000068E149884200D000BFE0A0FCF714FD5A
:10380000D2480068E449084400281BD0012804D0AD
:10381000022809D003281CD10DE0E0A0FCF704FD2C
:103820000220E64908601BE0E5A0FCF7FDFC04204F
:10383000E249086014E0E9A0FCF7F6FC0820DF4943
:1038400008600DE0ECA0FCF7EFFC0120DB4908600C
:1038500006E0F0A0FCF7E8FC0020D849086000BFB3
:1038600000BF4FF4FA70FFF7A7FE0120B4490860CB
:1038700044F23E43062214210820FDF703FAC82033
:10388000FFF79AFE44F23E43062214211C20FDF766
:10389000F9F9C820FFF790FE44F23E4306221421B6
:1038A0003020FDF7EFF9C820FFF786FE44F23E43D3
:1038B000062228211C20FDF7E5F9C820FFF77CFE31
:1038C00044F23E4306223C210820FDF7DBF9C820E4
:1038D000FFF772FE44F23E4306223C211C20FDF716
:1038E000D1F9C820FFF768FE44F23E4306223C218E
:1038F0003020FDF7C7F9C820FFF75EFE4FF6E05312
:10390000062214214420FDF7BDF9C820FFF754FE1C
:103910004FF6E05306223C216C20FDF7B3F9C82096
:10392000FFF74AFE4FF6E053062214216C20FDF704
:10393000A9F9C820FFF740FE4FF6E05306222821E0
:103940005820FDF79FF9C820FFF736FE4FF6E053E9
:1039500006223C214420FDF795F9C820FFF72CFEF4
:103960004EF22723062214218020FDF78BF9C82070
:10397000FFF722FE4EF22723062214218C20FDF7AA
:1039800081F9C820FFF718FE4EF2272306221421E2
:103990009820FDF777F9C820FFF70EFE4EF2272397
:1039A000062228218C20FDF76DF9C820FFF704FEC0
:1039B0004EF2272306223C218C20FDF763F9C82014
:1039C000FFF7FAFD4EF2272306223C218020FDF767
:1039D00059F9C820FFF7F0FD4EF2272306223C21BB
:1039E0009820FDF74FF9C820FFF7E6FD4FF4167059
:1039F000FFF7E2FDFEF7CAFD00208D49A1F80201A4
:103A0000FDE38C48007801284BD1002089490870DB
:103A1000FEF72CFAFFF76EFA8548007A0B9084487F
:103A2000407A0A90824800785A283BD180484078F2
:103A30005828FAD17E4880784928F6D17C48C07849
:103A40005F2801D1012000E0002079490979482947
:103A500001D1012100E000210840002822D0744853
:103A600040794528E1D1724880794128DDD17048FC
:103A7000C0794428D9D1002006900AE06C49069804
:103A8000085C014605906CA0FCF7CEFB0698401C34
:103A9000069006981028F1DB6548807A6449C97A57
:103AA000CEE03EE25CE10000400000203800002053
:103AB0003C00002000007A44440000204800002020
:103AC0004C000020626D703238305F707265737325
:103AD0003A256C640D0A0000626D703238305F74F4
:103AE000656D70203A256C640D0A0000626D7032BD
:103AF00038305F68696768203A256C640D0A0D0AE2
:103B000000000000626D703238305F707265737350
:103B1000323A256C640D0A00626D703238305F7481
:103B2000656D7032203A256C640D0A00626D70324A
:103B300038305F6869676832203A256C640D0A0086
:103B4000B4012242030300201C00002020000020BA
:103B50000D0A466C617368494420697320307825EA
:103B600058200D0A446576696365204944206973CD
:103B700020307825580D0A001540EF000D0ABCECE6
:103B8000B2E2B5BDB4AED0D0666C617368D0BEC6CB
:103B9000AC210D0A00000000ECBF10FF0D0A666C9E
:103BA000617368D0BEC6ACD0CDBAC5CEAA57323587
:103BB0005131364944210D0A000000002800002040
:103BC0000D0A666C617368D0BEC6ACD0CDBAC5CEE6
:103BD000AA573235513332210D0A00000D0A666CA6
:103BE000617368D0BEC6ACD0CDBAC5CEAA57323547
:103BF000513634210D0A00000D0A666C617368D0DD
:103C0000BEC6ACD0CDBAC5CEAA5732355138302158
:103C10000D0A00000D0A666C617368D0BEC6ACD098
:103C2000CDBAC5CEAAC6E4CBFB210D0A0000000028
:103C3000680300207000002025303258200000006A
:103C400040EA21210891F948007BF849497B40EA84
:103C500021200790DDE90710CDE90001F348407A03
:103C600006900146F2A0DDE90A32FCF7DDFA0020F9
:103C7000069007E0ED490698095CFD4A1154069844
:103C8000401C069006980E28F4DBDDE90A10FEF7CA
:103C90005BF908B1012000E000200990099818B9EB
:103CA000F4A0FCF7C1FA02E0FAA0FCF7BDFA4FF667
:103CB000FF705023A022002100900846FDF7DEF996
:103CC000002010214FF6FF7245F25843CDE9002144
:103CD0000290F9A201460220FDF7DDFF00200C2131
:103CE0004FF6FF7245F25843CDE900210290F6A24B
:103CF00010210220FDF7CFFF0C204FF6FF7145F297
:103D00005842CDE9002102900B9880B2032302466D
:103D10001C2106900220FDF740FF0C204FF6FF719A
:103D200045F25842CDE900210290089880B2042360
:103D300002461C2106902020FDF72FFF0C204FF695
:103D4000FF7145F25842CDE900210290079880B2F8
:103D5000042302461C2106903E20FDF71EFFE0E0F2
:103D6000B24800785A28FAD1B04840785828F6D19D
:103D7000AE4880784928F2D1AC48C0785F2801D19C
:103D8000012000E00020A9490979442901D101213D
:103D900000E0002108400028E1D0A44840794128F3
:103DA000DDD1A24880795428D9D1A048C0794128D2
:103DB000D5D19E48407A401E00EBC00101EB0011B6
:103DC000082000EBC10008900146C3A0DDE90A32DB
:103DD000FCF72AFA0020089007E094490898095C4B
:103DE000A34A11540898401C08900898D428F4DB82
:103DF000DDE90A10FEF7A8F808B1012000E0002074
:103E00000990099818B9C0A0FCF70EFA02E0C6A004
:103E1000FCF70AFA002010214FF6FF7245F25843D2
:103E2000CDE900210290C9A230210220FDF733FF25
:103E300000200C214FF6FF7245F25843CDE90021D6
:103E40000290C4A22A210846FDF725FF0C204FF658
:103E5000FF7145F25842CDE9002102900B9880B2E3
:103E600003230246362108902A20FDF796FE0C20F7
:103E70004FF6FF7145F25842CDE9002102900A98B1
:103E800080B203230246362108904220FDF785FECA
:103E900000200C214FF6FF7245F25843CDE9002176
:103EA0000290AFA230216A20FDF7F5FE0C204FF6FC
:103EB000FF71CDE900105D48807A45F25843024613
:103EC000302108907820FDF7DFFD0C204FF6FF71C0
:103ED000CDE900105548C07A45F2584302463021DA
:103EE00008908620FDF7D0FD0C204FF6FF71CDE93C
:103EF00000104E48007B45F258430246302108909E
:103F00009420FDF7C1FD0A9880280AD195A0FCF7FE
:103F10008BF9FEF73BFB012096490870002096497B
:103F200008709648007801287DD1002093490870D8
:103F300093499448006802F055FA089002F0CAF9D3
:103F4000914908608E499148006802F04BFA089048
:103F500002F0C0F98E49086089498E48006802F075
:103F600041FA089002F0B6F98B4908608148007860
:103F7000012859D1894800780028FAD10C214FF640
:103F8000FF721F23CDE90021029085A2412102206A
:103F9000FDF781FE00217D48006802F0EFF92DD287
:103FA00000200C214FF6FF721F23CDE90021029063
:103FB0007CA241210E20FDF76EFE7448006880F05F
:103FC000004008900C204FF6FF7145F25842042340
:103FD000CDE90021029041211420089AFDF702FD4D
:103FE00000200C214FF6FF721F23CDE90021029023
:103FF0006DA241213220FDF74EFEE0E00C204FF68D
:10400000FF7145F258420423CDE9002102905F4838
:10401000412102680E20FDF7E5FC00200C214FF63F
:10402000FF721F23C2E017E22EE1000068030020A8
:104030003C2D2D20CDBCCFF1CDB7A3BA5B30782578
:104040003038585D2C204E6F2E3A253033642C20AA
:10405000506B674E6F3A25642C2057696474683A38
:1040600025642C20486967683A25640D0A00000021
:10407000040100205A58493E494D472048454144D3
:1040800020577269746520466C61736820537563AC
:104090002E0D0A005A58493E494D47204845414493
:1040A00020577269746520466C61736820466169A7
:1040B0006C2E0D0A0000000020202020476574208F
:1040C000496D6167650000004E6F2E20205720204B
:1040D00020204820202020003C2D2D20CDBCCFF1D9
:1040E000CAFDBEDDC7F8A3BA5B3078253038585D0D
:1040F0002C204E6F2E3A253033642C20506B674EA7
:104100006F3A25640D0A00005A58493E494D472030
:104110004441544120577269746520466C6173684C
:10412000205375632E0D0A005A58493E494D4720C9
:104130004441544120577269746520466C6173682C
:10414000204661696C2E0D0A000000004441544174
:104150003A0000004E6F2E20506B674E6F0000003B
:1041600030780000CAFDBEDDD0B4C8EBCDEAB1CFD7
:104170000D0A000017000020180000201900002080
:1041800000007A443C000020440000203800002059
:1041900048000020400000204C0000203400002097
:1041A000543A00002D00000043000000CDE900213A
:1041B0000290AFF20C0241212C20FDF76CFD002093
:1041C0000C214FF6FF721F23CDE900210290F8A2C7
:1041D00041213220FDF75FFDF648006802F07AF8D1
:1041E00080B208900C204FF6FF7145F2584204232C
:1041F000CDE90021029041214420089A00E037E3F4
:10420000FDF7CBFCEB48006802F064F8059002F083
:104210009DF80690E7480168069802F0E0F9E64943
:10422000079002F0DFF808900C204FF6FF7145F27E
:1042300058420423CDE90021029041215C20089AD4
:10424000FDF7D0FB00200C214FF6FF721F23CDE9B4
:1042500000210290D9A241217A20FDF71CFDD84807
:10426000006802F053F880B208900C204FF6FF71FE
:1042700045F258420423CDE90021029041218620D5
:10428000089AFDF78AFCE7E0CE4800780228FAD1C8
:10429000002010214FF6FF7242F61233CDE90021C3
:1042A0000290C9A20C210220FDF7D6F80021C848CF
:1042B000006802F063F830D2002018214FF6FF7238
:1042C00045F25843CDE900210290AFF228120621B1
:1042D0003220FDF7E0FCBE48006880F00040089006
:1042E00018204FF6FF7145F258420423CDE9002112
:1042F000029006213E20089AFDF774FB0020102151
:104300004FF6FF7245F25843CDE900210290B1A269
:104310000A217A20FDF7A0F81CE018204FF6FF7163
:1043200045F258420423CDE900210290A848062115
:1043300002683220FDF756FB002010214FF6FF7275
:1043400045F25843CDE900210290A2A20A216E2035
:10435000FDF782F8002010214FF6FF7242F612336B
:10436000CDE9002102909CA22021FDF775F891482B
:10437000006801F0AFFF80B2089010204FF6FF7187
:1043800045F258420423CDE900210290202140202B
:10439000089AFDF702FC002010214FF6FF721F2340
:1043A000CDE9002102908FA220216020FDF773FC4F
:1043B0008048006801F08EFF049001F0C7FF05906F
:1043C0007C480168059802F00AF98749069002F0D6
:1043D00009F8079001F09AFF80B2089010204FF67C
:1043E000FF7145F258420423CDE9002102902021BB
:1043F0006820089AFDF7D1FB002010214FF6FF72CC
:1044000045F25843CDE90021029078A2202188206E
:10441000FDF741FC002010214FF6FF7242F61233E7
:10442000CDE90021029072A234210220FDF714F898
:104430006348006801F04EFF80B2089010204FF6EC
:10444000FF7145F258420723CDE900210290342143
:104450003220089AFDF756FB67480078012802D001
:1044600002287CD135E065A0FBF7DEFE69480078C4
:1044700040B9FEF78BF801206649087000205149C9
:10448000087022E064480078012804D100206249C5
:104490000870FEF77BF861480068401C5F490860BF
:1044A00008460068032801DD002001E05B48006841
:1044B0005A4908604FF6FF704323A0223B21009029
:1044C0000020FCF7DBFDFEF7D9F800204A49087010
:1044D000CDE153A0FBF7A8FE50480068012813D196
:1044E0004C48007801280FD100204A49087002206A
:1044F000344908704FF6FF705023A022002100902D
:104500000846FCF7BBFDADE14448006802284ED1E7
:104510004048007801284AD100203E4908704FF6F3
:10452000FF705023A022002100900846FCF7A6FD52
:10453000002010214FF6FF7242F61233CDE9002120
:1045400002903CA20146FDF7A6FB002010214FF689
:10455000FF7242F61233CDE90021029000E085E1BE
:1045600039A2FDF798FB002010214FF6FF7242F6AA
:104570001233CDE90021029039A22021FDF78BFBF7
:10458000002010214FF6FF7242F61233CDE90021D0
:10459000029038A23021FDF77EFB002010214FF65B
:1045A000FF7242F61233CDE9002102906EE072E014
:1045B00020503A003C0000200000C842506100003A
:1045C0004000002018000020CEC2B6C8A3BA0000E8
:1045D00038000020A1E60000B4F3C6F8D1B9A3BAB0
:1045E000000000002E00000000401C4668506100E2
:1045F000BAA3B0CEA3BA0000160000204B45593A2A
:104600002053494E474C4520434C49434B2E0D0AFD
:104610000000000017000020340000202C000020C3
:104620004B45593A20484F4C4420434C49434B2E6C
:104630000D0A00004D43553A2053544D3332463154
:1046400030334338543600004950533A20302E3925
:1046500036272038305247422A31363000000000D9
:104660004C4344204472697665723A20535437377C
:104670003335530050726573737572652053656EE0
:104680003A20424D503238300000000079A24021DB
:10469000FDF701FBE6E07C48006803280DD17B486C
:1046A0000078012809D17A49087000205023A022FF
:1046B00001460090FCF7E2FCD4E04FF6FF70502377
:1046C000A022002100900846FCF7D8FC7148006841
:1046D000642801DD002001E06E4800686D49086033
:1046E0000846006840B96C483C2334220A210090F7
:1046F0003220FDF79DFAADE066480068012851D1EF
:1047000000200890079049E0002006903AE00798C2
:1047100000EB8001069800EB81016048405C0128B5
:1047200016D110214FF6FF72CDE9002102900798B3
:1047300002EA001005900021069801EBC00080B24B
:104740004FF4784356A204900599FDF7A4FA16E0B9
:10475000012010214FF6FF72CDE900210290079849
:1047600002EA001005900021069801EBC00080B21B
:1047700045F258434BA204900599FDF78CFA069830
:10478000401C069006981428C1DB0798052802DA19
:104790000798401C07900898401C08900898052826
:1047A000B2DB57E03B48006802284FD101201021BE
:1047B0004FF6FF7242F61233CDE9002102903AA281
:1047C00000210420FDF767FA012010214FF6FF7247
:1047D00042F61233CDE90021029033A200210920D4
:1047E000FDF759FA002010214FF6FF720346CDE97C
:1047F0000021029031A20820FDF74DFA002010217F
:104800004FF6FF720346CDE9002102902FA220212E
:104810000820FDF740FA002010214FF6FF720346F2
:10482000CDE9002102902CA230210820FDF733FAB7
:10483000002010214FF6FF720346CDE900210290BF
:104840002AA240210820FDF726FA03E0114800685B
:10485000FEF72AF80F480068401C0E490860002047
:104860000A49087000202549087000E000BF00BF19
:10487000FFF7C7B8506F77657220534F433A20490E
:1048800050353330360000002C0000201700002087
:1048900034000020300000209A8900080303002023
:1048A000230000002A0000005468656E2C204D791A
:1048B0002055706C6F61642050696300576964749F
:1048C000683A313630444F54000000004869676848
:1048D0003A3830444F540000436F6C6F723A3136AF
:1048E0006269747328353635290000004D53422023
:1048F00046697273743A596573000000160000200F
:1049000010B50246012000E050430B1EA1F1010446
:10491000E1B2F9D110BD00002DE9F04D1D460C4665
:1049200098B0174621F0004123F00043002814BF3F
:104930004FF0010C4FF0000C0CEB440CFE4A0CEB5A
:1049400002064FEA620C66452BD33E0018BF0126D3
:1049500006EB45061644F94A964222D3F84A53EA32
:10496000070C02D0944205D148B918B00020114676
:10497000BDE8F08D002808BF4FF0000C01D04FF0CB
:10498000010C0CEB440212F5001F0AD8002F14BFD3
:104990004FF0010C4FF0000C0CEB450212F5001F1C
:1049A00007D918B03A462B462146BDE8F04DFEF730
:1049B00099BB0022DFF88CA3002CB8BF534526DA40
:1049C000DFF884C36345A8BF022220DADFF870C392
:1049D0009C451CDCDFF874C30CEB235CBCF1140FAA
:1049E00008DDCCF1340627FA06FC0CFA06F6BE42C6
:1049F0000DD108E05FB9CCF1140623FA06FC0CFADD
:104A000006F69E4203D10CF00102C2F1020251EA05
:104A1000000C19D1002D17DA002C18BF022A01D082
:104A2000012A07D00220FBF72EFE18B0BDE8F04D9A
:104A3000FEF750BB0220FBF726FEFEF74BFB18B03B
:104A400081F00041BDE8F08DB7F1000C6CD1534509
:104A500025D104F1804212F5801201BF0028002008
:104A6000B74918B008BFBDE8F08DB548884207DCEB
:104A7000002DA1BF6046294618B0BDE8F08D07E0C3
:104A8000281E05DA80F0004118B06046BDE8F08DC0
:104A9000AF497944D1E9000118B0BDE8F08DDFF8E5
:104AA000A0C2634525D1002D1FDA19B1514512D19D
:104AB000D8B909E0002840F0EC82A24A214618B09B
:104AC00062F31E01BDE8F08D0020214618B060F3AE
:104AD0001E01BDE8F08D08DA18B02346BDE8F04DA0
:104AE00002460020614600F097BD18B02146BDE89F
:104AF000F08D514518DAB5F1804F0DD0A5F1005C6D
:104B0000BCF1FF5C10D1B4F1000C0DDB18B06146B4
:104B1000BDE8F04D00F06CBC234618B00246BDE87D
:104B2000F04D194600F036BF060024F0004C3BD192
:104B3000D9B1514533D1002C06DD002DA1BF002095
:104B4000514618B0BDE8F08D002C01DD002D1BDBB7
:104B5000002C13DA002D11DB012A4FF0000014BFE6
:104B600078497C4918B0BDE8F08D022A18BF002CA6
:104B70000AD0012A08D1002C06DA0AE0002CB8BFBE
:104B8000002D11DA012A04D0002018B00146BDE83A
:104B9000F08D18B000204FF00041BDE8F08DA1F17C
:104BA0004050B0F17F601AD0012000EBE47050EA71
:104BB000020421D0624C521E4FF0000B104304BF80
:104BC0004FF0000B644C654883427CDD644A6548C5
:104BD00093421FDD884217DB002D25DB37E0002CD8
:104BE00000DA4AB1022A0CBF01204FF0FF3018B0A2
:104BF000BDE8F04D00F068BE0120FBF744FD18B0A1
:104C0000BDE8F04DFEF770BA4D4A8A4202DC002D35
:104C10000ADC1CE0814202DA002D18DA04E0484B7D
:104C2000994220DD002D12DD0220FBF72CFDFEF75E
:104C300061FA05460E46002253465846214600F0CA
:104C4000A9FE18B066F31E012846BDE8F08D0220CB
:104C5000FBF719FDFEF756FA0A46214618B062F333
:104C60001E01BDE8F08D00223046614601F0B8F823
:104C700080460E466FF0010201F063FD4FF05532A1
:104C8000394B00F0BBFF4246334600F083FE002262
:104C9000364B00F0B3FF824642463346049110463D
:104CA000194600F077FE5246049B00F073FE8A46D8
:104CB00000904FF0C0422E4B4046314600F06AFE55
:104CC0002C4A2B4B00E027E0CDE906015146009825
:104CD00000F060FE82460191274A284B404631464B
:104CE00000F058FE5246019B01F07AF882460B46CE
:104CF00002460591DDE9060100F0D2FBDDE906235D
:104D000000268846304601F06BF85246059B00F0BD
:104D100075FF024600F07EB90020B1F5801F07DA6A
:104D200035223046614601F00CFD06466FF0340036
:104D300000EB215024E00000FFFF1F00FFFF0F00E9
:104D40000000F03F0000F07F0000404301FCFFFF47
:104D50000A7A00000000F0FF0000F0BF0000E04110
:104D60000000F043FFFFEF3F5555D53F0000E03F07
:104D70004715F73FFE822B6544DF5DF80BAE543ECE
:104D8000A0F2FF300190C1F3130040F07F6141F0C9
:104D900040510291FE498842D8BF002004DDFD4900
:104DA0008142C8BF012001DD0D9008E000200D9078
:104DB0000198401C01900298A0F580100290029981
:104DC000F54878440B910D9900EBC100D0E9002320
:104DD0000F9330460A920B9901F002F8CDE90601D3
:104DE000DDE90A2130460F9B00F05AFB02460B46D4
:104DF0000020EA4900F010FC059102460B460090A5
:104E0000DDE9060100F0C6FD1490E5488A464FF042
:104E1000000878440299006812904FF0005040EA70
:104E200061010D980F9B01EB804000F50021099175
:104E30000A9A129800F0D4FF32460B9B00F0DEFE77
:104E40004246534600F0A6FD0646029140465146B2
:104E5000099B129A00F09EFDDDE9062300F0CEFECC
:104E60003246029B00F0BCFF059B009A00F092FDC9
:104E70000091149A049053461046194600F08AFD9A
:104E800006460246C7480B46029106217844FEF7C3
:104E9000CBF8CDE90510029B32461046194600F0CA
:104EA00079FDDDE9053200F075FD059106465346B2
:104EB00040461946149A00F0F3FA009B049A00F059
:104EC00069FD3246059B00F0EBFACDE9051042463C
:104ED00053461046194600F05DFD0022B24B029188
:104EE0000A9000F0DDFADDE9053200F0D9FA0E464D
:104EF0004246AD4B404600F073FF029B0A9A00F019
:104F00006FFFDDE9053200F079FE424602910A901A
:104F100033461046514600F03DFDCDE906015346AB
:104F2000149A02990A9800F035FD8A460290334699
:104F300042460099049800F02DFD5346029A00F075
:104F4000AFFA82460B4602460591DDE9060100F004
:104F5000A7FADDE9062300208846064600F040FF58
:104F60005246059B00F04AFE824609914FF060428E
:104F70008E4B3046414600F00DFD049006918C4A60
:104F80008A4B5046099900F005FD82460291894AF4
:104F9000894B3046414600F0FDFC5246029B00F032
:104FA0007FFA864B7B440D9A03EBC203D3E90023BF
:104FB00000F076FA0E900791019800F085FC0591BB
:104FC000DDE9061382460E9A049800F069FA7C4ADD
:104FD0007A440D9B02EBC303D3E9002300930292B2
:104FE00000F05EFA5246059B00F05AFA0026884609
:104FF00052463046059B00F0F3FE009B029A00F0FB
:10500000EFFE069B049A00F0EBFE079B0E9A00F061
:10501000F5FD024600200B4602903846294600F076
:10502000B9FC824601912B4638461946029A00F097
:10503000D7FE3246434600F0ADFC5246019B00F0DD
:105040002FFA07468A46324643462946029800F020
:10505000A1FC05460E463A46534600F021FA594A4D
:105060008846914221DBA8EB020353EA000210D1EB
:105070002A46334600F0B4FECDE90401524A534BB0
:105080003846514600F00CFADDE9042300F080FDBB
:1050900021D20220FBF7F7FAFEF72CF80A46214648
:1050A00018B062F31E01BDE8F08D494B28F00042B4
:1050B0009A4210D3474A08EB020353EA00027FF4F6
:1050C000C6AD2A46334600F08BFE3A46534600F002
:1050D0005FFD7FF6BCAD0022019228F000403E4902
:1050E0003E4A01EB2051824223DA481C4FF48011E2
:1050F00021FA00F040443A4AC0F30A517A44394B4D
:10510000A1F2FF31CB4020EA0303C0F3130040F4C7
:105110008010C1F11401C84012680190B8F1000F6D
:10512000BCBF404201902846314600F059FE05467A
:105130000E462A4633463846514600F0B1F94FF044
:1051400000084246284B4046059100F023FCCDE97B
:105150000601264A264B4046059900F01BFC0091AB
:1051600002902A4633464046059900F039FE3A46F9
:10517000534600F043FD1F4A1F4B00F00BFC009B01
:10518000029A00F08DF90746884602460B4635E044
:105190008E9803007AB60B00527600000000F03FB4
:1051A0008A760000B87500000000084009C7EE3F8D
:1051B000FD033ADCF5015B14E02F3EBE9074000065
:1051C0005474000000009040FE822B654715973C08
:1051D00000CC904000346F3F01FCFFFF0000E03F37
:1051E000A0730000FFFF0F00432EE63F396CA80CB0
:1051F000615C20BEEF39FAFE422EE63FDDE9060192
:1052000000F04EF9DDE9062305460E4600F0E8FD04
:105210003A46434600F0F2FC0F462A4633460090D9
:105220001046194600F0B6FB824602462E488846D4
:105230000B4605217844FDF7F7FE5246434600F041
:10524000A9FB2A46334600F0D9FC80468A463B46F5
:1052500028463146009A00F09DFB3B46009A00F03C
:105260001FF90691009000224FF0804340465146BE
:1052700000F0B6FD0F460C90424653462846314694
:1052800000F088FB3B460C9A00F0C6F9069B009A9A
:1052900000F0A6FD2A46334600F0A2FD0022134B83
:1052A00000F0ACFC054601980E4601EB00510815D4
:1052B000002810DC28463146019A01F042FAFDF739
:1052C0009FFE042808BFFDF71DFF28463146019ABE
:1052D00001F037FA05460B4618B02A4658462146D3
:1052E000BDE8F04D00F056BB407200000000F03FFA
:1052F0002DE9F05F0446894600210D460E468A4698
:105300003749384A127851F82200002100F0AEFFE8
:1053100013D13349334A1278206841F822002068BB
:10532000C9F800002F480078401CC0B22D49087011
:10533000052853DB0020087050E02A48007850B15F
:10534000284A1278521E264B53F82210206801F08A
:1053500051F9834605E0224A1169206801F04AF9B3
:105360008346584600F026FE21F0004107464FF0E4
:1053700020421D4B00F0D2FA0FD21949194A127877
:10538000206841F8220017480078401CC0B2154937
:105390000870052801DB002008704FF0000A0FE0BC
:1053A0000F4951F82A0000F005FE07462A46334609
:1053B00000F076F805460E460AF1010000F0FF0AFB
:1053C000BAF1050FECDB0022084B2846314600F00D
:1053D00023F9074600F032F8C9F80000BDE8F09F55
:1053E000E40C0020E00000209999B93F000014402F
:1053F0002DE9F04106460F4600F00CFC041E0D4658
:1054000018BF0120284320F00040C0F17F6000F168
:10541000E040C00F0ED0301C18BF0120384320F0F0
:105420000040C0F17F6000F1E040C00F04BF0120E8
:10543000FBF729F920462946BDE8F08121F000421A
:10544000A2F16052B2F5801F01F0004328BFD2F1F3
:105450007F6C0BD95FEA001C43EAC20242EB50703A
:1054600018BF704728BF20F001007047B2F5801FB9
:10547000BCBF184670474FEA410C1CF5001F02D212
:10548000084601F076B870B500F02EFB00000089E8
:10549000FFF7F6BF4FF00040A0F580007047000016
:1054A00010B591EA030F48BF83F0004300F1A084D8
:1054B000841A71EB030C05D2121943EB0C03001B89
:1054C00061EB0C01DFF824E14FEA1154A4EB135C0B
:1054D0001EEA430F18BF9EEA445F73D023EA0E030F
:1054E000DCF1200E21EA045143F4801332D322FA76
:1054F0000CFE10EB0E0023FA0CFE41EB0E01CCF17A
:10550000200E03FA0EFE10EB0E0051F10001B1F572
:10551000801FCCF1200E32D201EB045112FA0EF2B0
:10552000BDE8104058BF7047401C38BF5FEA4202D8
:1055300018BF7047002814BF20F0010041F100019E
:105540004FEA410313F5001F38BF7047A1F1C04176
:1055500000F018BB012A43EB0302ACF1200CDCF194
:105560001F0E32BF4FF0000E23FA0CF310EB0300B6
:1055700041EB0451B4EB115FD0D0A1EB045101F524
:10558000801149085FEA300001EB04510ED350F15D
:10559000000038BF12FA0EFE08D1BDE81040C9E77E
:1055A000401C38BF5FEA4202CAD1C3E7BDE81040E1
:1055B0004FEA410313F5001F38BF7047A1F1C04106
:1055C00000F0E0BA9EEA445F08D011EA5E0FBDE841
:1055D000104004BF01F0004100207047BDE81040BA
:1055E00070B500F081FA00BF64FBBE3E0000E0FF32
:1055F00002494FF0000001F072B800BF0000F87FD0
:10560000491058BFC1F140415B1058BFC3F140433E
:105610008B42EFF3008070472DE9C04130B4DFF8D2
:10562000A0C23CEA111418BF3CEA131400F0EC804D
:1056300081EA03051CEA111444EAD57418BF1CEA78
:10564000131500F0C780A4EB05044FF0004545EAB0
:10565000C12145EAC32341EA505143EA525304F1C0
:105660007F74994204F500344FEAC0204FEAC22209
:1056700008BF904200F09C804FEA13650FF240167D
:10568000765D4FEA134506FB05F7C7F1807706FB09
:1056900007F74FEAD737A7FB03687642C8F580388B
:1056A000A7FB06CE38BFA8F1010807FB08E64FF0BC
:1056B000000EA6FB028CE6FB03CEDCF1000CCEF163
:1056C000004E38BFAEF1010EA6FB0C584FF000079C
:1056D0004FF00005E6FB0E87A1FB08C6A0FB07CE36
:1056E00016EB0E0645F10005E1FB076515F1E04EEE
:1056F0007EBFA4F580345FEA46066D4116F180074F
:1057000045F100054FEA17274FEA066647EA0567A5
:10571000A6F1DE46B6F1805F4FEA15251FD938465F
:1057200024F0010C05EBC471BCF1FE6F01EB0C1110
:1057300002D8F0BCBDE8008124425CBF01F5801EA8
:105740009EEAC47F02D4F0BCBDE80081244238D474
:10575000F0BCA1F1C041BDE8004100F013BA4FEA2E
:10576000D22242EA43524FEAD323A7FB02864FEAF2
:10577000D02040EA415007FB03661EEA0E0F4FEAB5
:10578000D12105FB026658BFA6EB0056B6EB0056CA
:105790004FEA520E4EEAC37E18EB0E0E56EB530E36
:1057A000BDD518EB02085E417F1C55F10005B6E738
:1057B0004FF480154FF000074FF000064FF000083F
:1057C000ADE7F0BC4FF0000001F1C04101F0004135
:1057D000BDE8008111EA0C1F0CEA131500D00CE0A3
:1057E00013EA0C1F00F025804FF00000F0BC81EAA6
:1057F000030101F00041BDE80081F0BCBDE80041BB
:1058000081EA030100F0BEB9F0BCBDE8004170B50B
:1058100000F06AF9097EFC3E00F007B881EA030156
:105820004FF0000001F00041704781EA030100F0F1
:10583000A9B9F0BCBDE800414FF000002149704714
:10584000FFFDFBF9F7F5F4F2F0EEEDEBE9E8E6E445
:10585000E3E1E0DEDDDBDAD8D7D5D4D3D1D0CFCDCC
:10586000CCCBCAC8C7C6C5C4C2C1C0BFBEBDBCBB05
:10587000BAB9B8B7B6B5B4B3B2B1B0AFAEADACAB00
:10588000AAA9A8A8A7A6A5A4A3A3A2A1A09F9F9EDA
:105890009D9C9C9B9A99999897979695959493938C
:1058A000929191908F8F8E8E8D8C8C8B8B8A898923
:1058B00088888787868585848483838282818180A6
:1058C0000000FF070000F87F10F0004248BF404290
:1058D000B0FA80F310FA03F10AD0C3F11D0303F507
:1058E00080634FEA415002EB035202EBD121704733
:1058F0004FF000007047B0FA80F310FA03F10AD0BD
:10590000C3F11D0303F580634FEA41504FEA035290
:1059100002EBD12170474FF00000704751EA030CB1
:1059200017D41CF5801F58BFBCF5801F00F10680FE
:10593000994218BF704708BF9042704707D711F5CA
:10594000801F58BF13F5801F19D4994270478942B0
:1059500070471CF5801F08D5BCF5801FF7D58B421A
:1059600018BF704708BF824270474FF4001C1CEB01
:10597000410F38BF1CEB430F01D28B42704770B50B
:1059800000F0B2F8922449004FF000514FF08053DC
:10599000FFF736BEDFF848C170B51CEA111E1EBF06
:1059A0001CEA13159EEA0C0F95EA0C0F00F06F80AD
:1059B00081EA030423EA4C134EEAD47E21EA4C1117
:1059C00041F4801143F48013AE44A1FB024CA0FBD0
:1059D0000365AEF17F7E361955EB0C05A1FB034C38
:1059E0004CF10003A0FB021C16EB0C06654153F1C1
:1059F0000003094218BF46F0010613F4007F0BD1E3
:105A00004FEA03314FEA0530340341EA155140EAC9
:105A100016506FF003020AE04FEAC3214FEAC52097
:105A2000F40241EA555140EA56506FF0020202EB8F
:105A30002E4201EB025585EACE710AD05FEA440C92
:105A400018BF24F0004450F1000041F1000120EAA9
:105A5000D47040F2FE7C624500D270BDA84214BFF3
:105A60004FF080444FF04044002E08BF0024BEF1A8
:105A7000806FA8BFA1F1C041BDE8704080F2828074
:105A80004FF0000001F1C04101F0004170479EEA73
:105A90000C0F0CEA131518BF95EA0C0F06D04FF047
:105AA000000081EA030E0EF0004170BD00F01CF80A
:105AB0008900013E00F007B800F009B84FEA430C36
:105AC0005FEA5C5C08D081EA030100F05BB84FEA52
:105AD000410C5FEA5C5CF6D14FF000000149704771
