:020000040800F2
:10000000900A00209D010008711D0008F70D0008EE
:100010006D1D0008310C0008832D00080000000051
:100020000000000000000000000000003D25000866
:10003000350C000800000000F91D00082529000803
:10004000B7010008B7010008B7010008B7010008B0
:10005000B7010008B7010008B7010008B7010008A0
:10006000B7010008B7010008B7010008B701000890
:10007000B7010008B7010008B7010008B701000880
:10008000B7010008B7010008B7010008B701000870
:10009000B7010008B7010008B7010008B701000860
:1000A000B7010008B7010008B7010008B701000850
:1000B000B701000889290008B7010008B701000846
:1000C000B7010008B7010008B7010008B701000830
:1000D000B7010008592B0008B7010008B701000854
:1000E000B7010008B7010008B701000800F002F8E6
:1000F00000F045F80AA090E8000C82448344AAF17D
:100100000107DA4501D100F03AF8AFF2090EBAE87A
:100110000F0013F0010F18BFFB1A43F0010318473B
:1001200050BF000070BF0000103A24BF78C878C1EB
:10013000FAD8520724BF30C830C144BF04680C60ED
:10014000704700000023002400250026103A28BF35
:1001500078C1FBD8520728BF30C148BF0B60704739
:10016000642900F0BD80782900F0F680732900F042
:10017000F182002070471FB51FBD10B510BD00F003
:1001800055FB1146FFF7F7FF03F07EF900F073FB14
:1001900003B4FFF7F2FF03BC02F0EBFE094880470F
:1001A00009480047FEE7FEE7FEE7FEE7FEE7FEE759
:1001B000FEE7FEE7FEE7FEE704480549054A064B71
:1001C0007047000029290008ED0000089004002075
:1001D000900A00209006002090060020704710B57D
:1001E0004C1084EA530404D54042C1F1000138BFE9
:1001F000491E1B4204D55242C3F1000338BF5B1EA7
:1002000000F0BBF914F0804F04D04042C1F100016E
:1002100038BF491E14F0004F04D05242C3F100030E
:1002200038BF5B1E10BD00000FB4044910B503AA0F
:10023000029800F093FA10BC5DF814FB5C000020FB
:1002400070B5044685690068C10601D5302600E016
:100250002026C00707D070BDD4E901213046904761
:10026000206A401C20626D1EF6D570BD70B5044634
:1002700085690078C00707D170BDD4E9012120202D
:100280009047206A401C20626D1EF6D570BD70B587
:100290000C460546012A05D02878800600D5EA6973
:1002A000002302E0012305E05B1C934202D2E05CE4
:1002B0000028F9D1A869E618C01AA861286A18446C
:1002C00028622846FFF7BCFF04E0D5E9012114F8B5
:1002D000010B9047B442F8D32846FFF7C7FF70BD23
:1002E0002DE9F0410646002410687529314616A50F
:1002F00010D0AFF30080002802DA404213A507E0D7
:1003000031688A0701D512A502E0490704D511A575
:10031000012401E0AFF3008000210A2206F1240746
:1003200009E0B0FBF2FCB0FBF2F302FB1C00303042
:1003300078541846491C0028F3D123462A463046F3
:10034000BDE8F04100F09BB9000000002D00000066
:100350002B0000002000000070B504460D46214629
:100360001068AFF300802188090502D50F4A7A444E
:1003700002E00E4A7A440E32002104F1240305E023
:1003800000F00F060009965D5E54491C0028F7D165
:1003900020780023000704D5702D02D009B1022374
:1003A00011322046BDE8704000F069B932BC00004F
:1003B0002DE9F05F894604464FF0000ADFF824B1CA
:1003C000FB44C0F820A02046E168884700287DD083
:1003D000252806D0D4E901219047206A401C2062DC
:1003E000F1E700255F462046E16888472028064659
:1003F00007DB312E05D2B81910F8200C08B10543DF
:10040000F1E7A80701D525F00405C4F81CA00027D2
:10041000C4F818A02A2E09D0304602F0A3FD38B344
:1004200004EB8708303EC8F8186019E059F8041B3F
:10043000204604EB87029161E1688847012F064658
:1004400018D1E069002820DA25F020051DE0D8F851
:10045000180000EB800006EB40003038C8F81800A8
:100460002046E1688847064602F07CFD0028EED170
:10047000012F0AD02E2E08D12046E16888477F1C24
:100480000646022F45F02005C4DBA069002803DAE8
:10049000404245F00105A061E80701D025F01005B4
:1004A000A6B1A6F14100192802D8203645F400650E
:1004B0004A463146204625604D46FFF751FE60B161
:1004C000012807D0ED1D25F0070000E007E000F14E
:1004D000080978E705F1040975E730467AE7206AEC
:1004E000BDE8F09F08BC0000032A40F2308010F005
:1004F000030C00F0158011F8013BBCF1020F6244BF
:1005000098BF11F801CB00F8013B38BF11F8013B4F
:10051000A2F1040298BF00F801CB38BF00F8013BFC
:1005200011F0030300F02C81083AC0F0088051F864
:10053000043B083A51F804CBA0E80810F5E7121D77
:100540005CBF51F8043B40F8043BAFF30080D20796
:1005500024BF11F8013B11F801CB48BF11F8012B62
:1005600024BF00F8013B00F801CB48BF00F8012B85
:100570007047704770477047704753EA020C00F0AD
:1005800069802DE9F04B4FF00006002B1FBFB3FA36
:1005900083F503FA05F424FA05F65E4012BF16430C
:1005A000B2FA82F502FA05F4C5F120051EBF22FA5F
:1005B00005FC44EA0C04203556EA044C4FEA144486
:1005C00018BF641C4FF000084FF00009904271EB17
:1005D000030C39D3002919BFB1FA81F701FA07F6E4
:1005E000B0FA80F700FA07F6C7F120071EBF20FA1D
:1005F00007FC46EA0C062037B6FBF4FCA7EB050720
:10060000103F07F01F0BCBF120060CFA0BFB2CFA66
:1006100006F644BFB3460026202FA4BF5E464FF027
:10062000000B5BEA060C08BF4FF0010B19EB0B093E
:10063000ABFB027C48EB0608C01B06FB02CC0BFBA5
:1006400003CC71EB0C01C1E70B460246414648461C
:10065000BDE8F08B13B54FF000004FF00001AFF391
:100660000080BDE81C40704710B500F0BFF800687E
:1006700010BD10B5044600F0B9F8046010BD2DE9B6
:10068000F0470D4699469246044600F12408016859
:10069000880604D5E06921F01001216000E0012006
:1006A000A84201DD471B00E00027A1697A1902EB8F
:1006B0000900081AA0612078C00602D42046FFF77E
:1006C000BFFD002608E0D4E901211AF80600904792
:1006D000206A401C761C20624E45F4DB2078C00660
:1006E0000AD52046FFF7ACFD06E0D4E90121302011
:1006F0009047206A401C2062381EA7F10107F4DCF5
:1007000007E0D4E9012118F805009047206A401C51
:100710002062281EA5F10105F3DC2046FFF7A6FDA7
:100720002078000602D50220BDE8F0870120FBE713
:1007300010B5436913B1AFF3008001E0FFF7A7FDE7
:10074000012010BD127800F124010A7000224A70C5
:100750000122EDE711684FF0FF32E9E7074B70B572
:100760000D467B4400F04BF80446284600F05AF84A
:1007700010B14FF0FF3070BD204670BDFF2C00005F
:1007800010B5203AC0F00B80B1E81850203AA0E82C
:100790001850B1E81850A0E81850BFF4F5AF5FEA60
:1007A000027C24BFB1E81850A0E8185044BF18C913
:1007B00018C0BDE810405FEA827C24BF51F8043BBA
:1007C00040F8043B08BF7047D20728BF31F8023B0E
:1007D00048BF11F8012B28BF20F8023B48BF00F8A2
:1007E000012B7047004870473004002000487047D4
:1007F0003004002001694A1C02610878704700B586
:100800008FB0CDE901310021059105497944CDE949
:10081000031011466846FFF7CBFD0FB000BD000086
:10082000E5FFFFFF007B00F0800070477546FFF793
:10083000D9FFAE4605006946534620F007008546BD
:1008400018B020B5FFF7B8FCBDE820404FF0000617
:100850004FF000074FF000084FF0000B21F00701A8
:10086000AC46ACE8C009ACE8C009ACE8C009ACE8EB
:10087000C0098D46704710B50446AFF3008020468E
:10088000BDE81040FFF784BC10B500200F49086098
:100890000F48006820F470400D4908600846006861
:1008A00040F44050086000200A49C1F8AC01022021
:1008B00002F0B2FD012005490860022002F0ACFD03
:1008C00000200449C1F8A80110BD0000A881214200
:1008D000040C01400080214208B50121082001F0EC
:1008E00073FB4FF44060ADF8000010208DF803005A
:1008F00003208DF802006946044800F09CF90120AD
:10090000034908600349C1F8AC0108BD000C01406F
:10091000A88121420080214210B500200F490860C3
:100920000F48006820F470400D49086008460068D0
:1009300040F44050086001200A49C1F8AC0102208F
:1009400002F06AFD012005490860022002F064FD02
:1009500000200449C1F8A80110BD0000A88121426F
:10096000040C01400080214270B505460024174860
:10097000006820F47040154908600846006840F49B
:1009800000400860002616E000201149086002209F
:1009900002F042FD01200F49C1F8A8016006040ED3
:1009A0000B487C38006808B1601CC4B2012002F01A
:1009B00033FD701CC6B2082EE6DB15B9FFF7ACFF9D
:1009C00001E0FFF761FF204670BD0000040C01400C
:1009D000A88121420080214270B504461548006874
:1009E00020F47040134908600846006840F4405005
:1009F0000860002010490860002517E0E0090E4952
:100A0000091D08606006040E022002F005FD0120A9
:100A10000A49C1F8A801022002F0FEFC00200649A4
:100A20000860022002F0F8FC681CC5B2082DE5DB66
:100A300070BD0000040C0140A881214200802142C9
:100A400010B50F48006820F470400D490860084652
:100A5000006840F44050086001200A4908600A49D3
:100A6000C1F8A801042002F0D7FC00200549086065
:100A7000042002F0D1FC00200349C1F8A80110BDF8
:100A8000040C0140AC8121420080214210B50F4886
:100A9000006820F470400D4908600846006840F482
:100AA0004050086000200A4908600A49C1F8AC01BA
:100AB000042002F0B1FC0120054908600549C1F895
:100AC000AC01042002F0A8FC10BD0000040C0140A1
:100AD000A88121420080214210B5002414480068FA
:100AE00020F47040124908600846006840F4004055
:100AF000086001200F49086002F08EFC01200E49B9
:100B0000C1F8A80102F088FC07E0601CC4B2FA2C0E
:100B100003DDFFF7BBFF012010BD064880380068E9
:100B20000028F2D10349091F086000BFF4E7000064
:100B3000040C0140AC812142008021422DE9F041AA
:100B40000746884615461E460024FFF779FF3846BB
:100B5000FFF742FFFFF7C0FF4046FFF73DFFFFF7FB
:100B6000BBFFFFF76DFF47F00100FFF735FFFFF711
:100B7000B3FF00BF0CE0681EA04204D10020FFF7C5
:100B8000F3FE305503E00120FFF7EEFE3055641C04
:100B9000AC42F0DBFFF77AFFBDE8F08170B50446A8
:100BA0000D460026FFF74CFF2046FFF715FFFFF725
:100BB00093FF2846FFF710FFFFF78EFFFFF740FF78
:100BC00044F00100FFF708FFFFF786FF0020FFF762
:100BD000CBFE0646FFF75AFF304670BD70B506469D
:100BE0000C461546FFF72CFF3046FFF7F5FEFFF7E2
:100BF00073FF2046FFF7F0FEFFF76EFF2846FFF772
:100C0000EBFEFFF769FFFFF741FF70BD10B503462C
:100C100007E018780C78A04201D0002010BD5B1CC2
:100C2000491C101EA2F10104A2B2F2D10120F5E785
:100C300000BFFEE770472DE9F0410246002500267F
:100C4000002000230024002791F803C00CF00F05BA
:100C500091F803C00CF0100CBCF1000F03D091F818
:100C600002C04CEA050591F800C0BCF1000F31D07C
:100C7000146800202BE04FF0010C0CFA00F3B1F8DF
:100C800000C00CEA03069E4220D183004FF00F0CF7
:100C90000CFA03F7BC4305FA03FC4CEA040491F890
:100CA00003C0BCF1280F06D14FF0010C0CFA00FC78
:100CB000C2F814C00AE091F803C0BCF1480F05D196
:100CC0004FF0010C0CFA00FCC2F810C0401C0828C0
:100CD000D1D31460B1F800C0BCF1FF0F34DD54680B
:100CE00000202EE000F1080C4FF0010808FA0CF388
:100CF000B1F800C00CEA03069E4221D183004FF0F8
:100D00000F0C0CFA03F7BC4305FA03FC4CEA04048D
:100D100091F803C0BCF1280F05D100F1080C08FAC6
:100D20000CF8C2F8148091F803C0BCF1480F07D149
:100D300000F1080C4FF0010808FA0CF8C2F8108016
:100D4000401C0828CED35460BDE8F081F0B50A46B7
:100D5000002300240021002500F00046B6F1004FDA
:100D600002D11D4EF16901E01B4E7168C0F30345CD
:100D700083B200F44016B6F5401F08D121F070612F
:100D8000154E766826F07066134F7E6012E000F410
:100D90008016B6F5801F06D1032606FA05F4A14396
:100DA00041F0706106E0460D360103FA06F6B143E4
:100DB00041F0706122B1460D360103FA06F6314367
:100DC00000F00046B6F1004F02D1034EF16101E0A0
:100DD000014E7160F0BD000000000140024600209D
:100DE00093680B400BB1012000E000207047416187
:100DF00070470161704700BFFEE7000010B528484A
:100E0000007820B1012810D0022845D13BE0012113
:100E10002448FFF7E3FF10B10120214908700020AA
:100E2000214908702149087037E001211D48FFF76A
:100E3000D5FFD0B11D48007810B901201B490870BA
:100E400019480078401C1849087008460078642842
:100E500018DD022016490870002013490870134954
:100E6000087002200E4908700CE010480078012834
:100E700005D10F49087002200949087002E00020DE
:100E80000749087009E001210648FFF7A7FF10B9DC
:100E900000200349087000E000BF00BF10BD000043
:100EA00014000020000801405600002057000020D8
:100EB000160000202DE9F04107460C4615461E4657
:100EC0002A2000F0DFFE384600F0CCFE284600F075
:100ED000C9FE2B2000F0D6FE04F1180188B200F004
:100EE000C1FE06F1180188B200F0BCFE2C2000F013
:100EF000C9FEBDE8F0812DE9FF4F85B081468A46E5
:100F00000020039083460798A0EB09050898A0EB02
:100F10000A06CDF80890CDF804A0002D01DD0127C8
:100F200005E00DB9002702E04FF0FF376D42002EBB
:100F300002DD4FF0010806E016B94FF0000802E0AC
:100F40004FF0FF387642B54201DD2C4600E03446D2
:100F5000002004901EE0019A91B2029A90B2129A77
:100F600000F01FF8039828440390B3440398A0426C
:100F700005DD0398001B0390029838440290A345B6
:100F800004DDABEB040B0198404401900498401C35
:100F900080B20490611C04988842DCDB09B0BDE893
:100FA000F08F70B504460D4616462B46224629465C
:100FB0002046FFF77FFF304600F054FE70BD2DE95C
:100FC000F84305460E4617469846089C33463A466F
:100FD000314628460094FFF78EFF43462A463146A5
:100FE00028460094FFF787FF43463A464146284685
:100FF0000094FFF780FF43463A4631463846009456
:10100000FFF779FFBDE8F8832DE9F04706460F4664
:1010100014461D46DDF820A0681E83B2601E82B211
:1010200039463046FFF746FFB8460EE0B14606E0C7
:10103000504600F017FE09F101001FFA80F9A145A2
:10104000F6DB08F101001FFA80F8A845EEDBBDE8E9
:10105000F087000008B50121082000F0B5FF4FF42B
:10106000FC70ADF8000010208DF8030003208DF80F
:10107000020069460448FFF7DEFD4FF4FC710248A8
:10108000FFF7B7FE08BD0000000C014010B5FFF7E8
:10109000E1FF40217C48FFF7AAFE642002F096F9A8
:1010A00040217948FFF7A5FE642002F08FF94FF444
:1010B00080717548FFF79DFE642002F087F91120CA
:1010C00000F0E0FD782002F081F9B12000F0DAFDB7
:1010D000052000F0D0FD3C2000F0CDFD3C2000F0CC
:1010E000CAFDB22000F0CEFD052000F0C4FD3C207A
:1010F00000F0C1FD3C2000F0BEFDB32000F0C2FDB9
:10110000052000F0B8FD3C2000F0B5FD3C2000F0CB
:10111000B2FD052000F0AFFD3C2000F0ACFD3C200E
:1011200000F0A9FDB42000F0ADFD032000F0A3FD08
:10113000C02000F0A7FD0E2000F09DFD0E2000F065
:101140009AFD042000F097FDC12000F09BFDC52012
:1011500000F091FDC22000F095FD0D2000F08BFD08
:10116000002000F088FDC32000F08CFD8D2000F0F1
:1011700082FD2A2000F07FFDC42000F083FD8D2039
:1011800000F079FDEE2000F076FDC52000F07AFD3C
:10119000062000F070FD362000F074FD782000F08D
:1011A0006AFD3A2000F06EFD552000F064FDE0205D
:1011B00000F068FD0B2000F05EFD172000F05BFDE5
:1011C0000A2000F058FD0D2000F055FD1A2000F017
:1011D00052FD192000F04FFD162000F04CFD1D209F
:1011E00000F049FD212000F046FD262000F043FDDF
:1011F000372000F040FD3C2000F03DFD002000F0D5
:101200003AFD092000F037FD052000F034FD1020E4
:1012100000F031FDE12000F035FD0C2000F02BFD49
:10122000192000F028FD092000F025FD0D2000F018
:1012300022FD1B2000F01FFD192000F01CFD1520D1
:1012400000F019FD1D2000F016FD212000F013FD17
:10125000262000F010FD392000F00DFD3E2000F0AA
:101260000AFD002000F007FD092000F004FD052024
:1012700000F001FD102000F0FEFC782002F0A6F83E
:10128000292000F0FFFC10BD000C01402DE9FF5F9C
:1012900080468A4617469B460F9D00200290CDF857
:1012A0000080284605EBD071C1F347042046E217C1
:1012B00004EB5272D2102146E31704EB5373DB1098
:1012C000A4EBC3030BB1012300E000231A446A43DB
:1012D00092B20192A7F12000C7B20AEB0500401EAE
:1012E00083B208EB0400401E82B251464046FFF72D
:1012F000E1FD002669E00C2D07D107EB47003549D9
:1013000001EB8000805D03901BE0102D05D1324879
:1013100000EB0710805D039013E0182D07D107EB59
:1013200047002E4901EB0010805D039009E0202D5D
:1013300005D12B4800EB8710805D039001E0BDE8EC
:10134000FF9F4FF000093AE01098C8B9012000FA59
:1013500009F00399084018B1584600F083FC02E0F8
:101360000E9800F07FFC0298401CC0B202900298D8
:1013700090FBF4F104FB1100E8B90020029021E099
:10138000012000FA09F00399084020B15A4651465D
:101390004046FFF706FE08F101001FFA80F80098AA
:1013A000A8EB0000A04206D1DDF800800AF10100A0
:1013B0001FFA80FA06E009F1010000F0FF09B9F117
:1013C000080FC1DB00BF701C86B20198864292DB19
:1013D00000BFB4E7C49F000838A4000828AA00088A
:1013E000F8BB00082DE9FE4F8046894617469A460D
:1013F000DDE90D460C9D36E00C2C09D153463A46EA
:1014000049464046CDE90146009500F031F825E017
:10141000102C09D153463A4649464046CDE901468B
:10142000009500F0C9F819E0182C09D153463A4646
:1014300049464046CDE90146009500F059F90DE0D6
:10144000202C09D153463A4649464046CDE901464B
:10145000009500F0F1F901E0BDE8FE8FBF1C08EB3C
:1014600004001FFA80F838780028C5D100BFF3E7E0
:101470002DE9FF5F0646894692469B460F9C002059
:10148000039000962046E21704EB5272D2102146D8
:10149000E31704EB5373DB10A4EBC3030BB101237D
:1014A00000E000231A44624392B2019201200290AC
:1014B000002579E005EB850000EBC5003D4911F8FA
:1014C00010009AF8001088426BD105EB850000EB04
:1014D000C500384901EB400040789AF80110884275
:1014E0005FD109EB0400401E83B23019401E82B266
:1014F00049463046FFF7DEFC00274FE04FF000087A
:1015000046E0109808BB05EB850000EBC5002949B3
:1015100001EB4000801CC05D012101FA08F1084088
:1015200018B1584600F09EFB02E00E9800F09AFBBE
:101530000398401CC0B20390039890FBF4F104FBA5
:10154000110008BB0020039025E005EB850000EBAF
:10155000C500184901EB4000801CC05D012101FA63
:1015600008F1084020B15A4649463046FFF719FDB8
:10157000701C86B20098301AA04205D1009E09F175
:1015800001001FFA80F906E008F1010000F0FF08F1
:10159000B8F1080FB5DB00BF781CC7B201988742CD
:1015A000ACDB00BF681C85B20298854282DBBDE8D7
:1015B000FF9F000038BC00082DE9FF5F0646894602
:1015C00092469B460F9C0020039000962046E2170F
:1015D00004EB5272D2102146E31704EB5373DB1075
:1015E000A4EBC3030BB1012300E000231A446243C0
:1015F00092B2019213200290002571E005EB0510D4
:101600003A4911F810009AF80010884265D105EBAC
:101610000510364901EB400040789AF801108842E5
:101620005BD109EB0400401E83B23019401E82B228
:1016300049463046FFF73EFC00274BE04FF00008DC
:1016400042E01098F8B905EB0510284901EB40007D
:10165000801CC05D012101FA08F1084018B158460C
:1016600000F000FB02E00E9800F0FCFA0398401C2A
:10167000C0B20390039890FBF4F104FB1100F8B999
:101680000020039023E005EB0510184901EB400012
:10169000801CC05D012101FA08F1084020B15A46C2
:1016A00049463046FFF77DFC701C86B20098301A20
:1016B000A04205D1009E09F101001FFA80F906E061
:1016C00008F1010000F0FF08B8F1080FB9DB00BF16
:1016D000781CC7B201988742B0DB00BF681C85B296
:1016E000029885428ADBBDE8FF9F000052BC0008DB
:1016F0002DE9FF5F0646894692469B460F9C0020D7
:10170000039000962046E21704EB5272D210214655
:10171000E31704EB5373DB10A4EBC3030BB10123FA
:1017200000E000231A44624392B201920120029029
:10173000002579E005EB850000EB45103D4911F8E7
:1017400010009AF8001088426BD105EB850000EB81
:101750004510384901EB400040789AF80110884262
:101760005FD109EB0400401E83B23019401E82B2E3
:1017700049463046FFF79EFB00274FE04FF0000838
:1017800046E0109808BB05EB850000EB45102949A1
:1017900001EB4000801CC05D012101FA08F1084006
:1017A00018B1584600F05EFA02E00E9800F05AFABE
:1017B0000398401CC0B20390039890FBF4F104FB23
:1017C000110008BB0020039025E005EB850000EB2D
:1017D0004510184901EB4000801CC05D012101FA51
:1017E00008F1084020B15A4649463046FFF7D9FB78
:1017F000701C86B20098301AA04205D1009E09F1F3
:1018000001001FFA80F906E008F1010000F0FF086E
:10181000B8F1080FB5DB00BF781CC7B2019887424A
:10182000ACDB00BF681C85B20298854282DBBDE854
:10183000FF9F0000D8BE00082DE9FF5F06468946DD
:1018400092469B460F9C0020039000962046E2178C
:1018500004EB5272D2102146E31704EB5373DB10F2
:10186000A4EBC3030BB1012300E000231A4462433D
:1018700092B2019201200290002571E005EB8510E3
:101880003A4911F810009AF80010884265D105EB2A
:101890008510364901EB400040789AF801108842E3
:1018A0005BD109EB0400401E83B23019401E82B2A6
:1018B00049463046FFF7FEFA00274BE04FF000089C
:1018C00042E01098F8B905EB8510284901EB40007B
:1018D000801CC05D012101FA08F1084018B158468A
:1018E00000F0C0F902E00E9800F0BCF90398401C2B
:1018F000C0B20390039890FBF4F104FB1100F8B917
:101900000020039023E005EB8510184901EB40000F
:10191000801CC05D012101FA08F1084020B15A463F
:1019200049463046FFF73DFB701C86B20098301ADE
:10193000A04205D1009E09F101001FFA80F906E0DE
:1019400008F1010000F0FF08B8F1080FB9DB00BF93
:10195000781CC7B201988742B0DB00BF681C85B213
:10196000029885428ADBBDE8FF9F000022BF000885
:101970002DE9FF4F85B0074690461C46DDE91396DA
:10198000304606EBD071C1F3470B2149404604F0C5
:101990000DFB039004F09EFA80B20490002531E024
:1019A000601B401EC1B20A2002F08EFD0499B1FBFB
:1019B000F0F00A21B0FBF1F201FB120AA01EA842CE
:1019C00010D10020A11E01FB0B71CDE90096029001
:1019D00088B22E22129B0699FFF758FC681CC5B2EC
:1019E000601CC4B200200AF13001CAB205FB0B71C1
:1019F000CDE90096029088B2129B0699FFF746FC4B
:101A0000681CC5B2A542CBDB09B0BDE8F08F000071
:101A10000000C8422DE9FF4F83B006468A461446AF
:101A2000DDE910750920B0EB241F04DA0A20C0EBB1
:101A30002410413001E02011303000F0FF0804F0A4
:101A40000F00092803DD04F00F00373002E004F036
:101A50000F00303000F0FF090020CDE90075029042
:101A6000424651463046069BFFF710FC0020AB462D
:101A700005EBDB7106EB6101CDE90075029088B2E0
:101A80004A465146069BFFF701FC07B0BDE8F08FC0
:101A90002DE9FF4F85B0074691461D46DDE913A6A7
:101AA00000200490304606EBD071C1F3470B0024B0
:101AB00034E0281B401EC1B20A2002F005FDB9FB2C
:101AC000F0F00A21B0FBF1F201FB12080498A0B972
:101AD000681EA04211DDB8F1000F0CD1002004FBFC
:101AE0000B71CDE900A6029088B22022129B0699C4
:101AF000FFF7CCFB10E001200490002008F130013A
:101B0000CAB204FB0B71CDE900A6029088B2129B09
:101B10000699FFF7BBFB00BF601CC4B2AC42C8DB38
:101B200009B0BDE8F08F2DE9FF4F85B0074691461B
:101B30001D46DDE913A600200490304606EBD07167
:101B4000C1F3470B002434E0281B401EC1B20A2019
:101B500002F0BAFCB9FBF0F00A21B0FBF1F201FB94
:101B600012080498A0B9681EA04211DDB8F1000F58
:101B70000CD1002004FB0B71CDE900A6029088B2C5
:101B80003022129B0699FFF781FB10E001200490A0
:101B9000002008F13001CAB204FB0B71CDE900A6A8
:101BA000029088B2129B0699FFF770FB00BF601C81
:101BB000C4B2AC42C8DB09B0BDE8F08F2DE9F05FDC
:101BC0000746884615461E46DDF82890002408EB97
:101BD0000600401E83B27819401E82B24146384644
:101BE000FFF768F9A24618E04FF0000B0FE019F874
:101BF000140000F040F8012101EB440119F8010044
:101C000000F039F8641C0BF101001FFA80FBB345AA
:101C1000EDDB0AF101001FFA80FAAA45E4DBBDE81A
:101C2000F09F2DE9FE4F06460F4614469846DDE923
:101C30000D5ADDF8309010E0CDE9015ACDF8009052
:101C40002278434639463046FFF720FB284605EB0D
:101C5000D07106EB61018EB2641C20780028EBD1B4
:101C6000BDE8FE8F10B50446201200F01BF8E0B26C
:101C700000F018F810BD10B50446204600F012F828
:101C800010BD000010B5044610210548FFF7AFF85D
:101C9000204600F007F810210148FFF7AAF810BD10
:101CA000000C014070B5044680211248FFF79FF8F0
:101CB000002517E008210F48FFF799F804F080008D
:101CC00020B120210B48FFF794F803E020210948B8
:101CD000FFF78DF808210748FFF78BF86006040E20
:101CE000681CC5B2082DE5DB80210248FFF781F8AA
:101CF00070BD0000000C014008B50121112000F06A
:101D000063F901211648FFF721F84FF40050ADF8B0
:101D1000000010208DF8030003208DF802006946B2
:101D20001048FEF788FF4FF400510E48FFF761F8A6
:101D30000121092000F048F94FF48070ADF800004F
:101D400010208DF8030003208DF802006946064834
:101D5000FEF771FF4FF480710348FFF74AF808BDA2
:101D60000002300000100140000C014000BFFEE7FF
:101D70007047000070B5002100230F22C47804B31F
:101D8000154C246804F4E064C4F5E064210AC1F150
:101D90000403CA40447804FA03F1847814402143D0
:101DA00009010E4C0678A155047804F01F050124A2
:101DB000AC4005786D11AD0005F1E025C5F8004196
:101DC00009E0047804F01F050124AC40044D0678B6
:101DD000761145F8264070BD0CED00E000E400E00F
:101DE00080E100E002490143024A116070470000AF
:101DF0000000FA050CED00E0704700002DE9F0410D
:101E000007460D460024781E04EBC034F5B9204681
:101E100000F0FAFA04F5805000F0F6FA04F50050EC
:101E200000F0F2FA04F5405000F0EEFA04F58040BC
:101E300000F0EAFA04F5A04000F0E6FA04F5C0402C
:101E400000F0E2FA04F5E04000F0DEFA04EB0524CD
:101E50000DB90E2000E0D2202A490860084600880B
:101E600082B22146284800F05FF9012D47D125486C
:101E7000016826A0FEF7D8F9002605E02248815D1A
:101E800029A0FEF7D1F9761C1E4800688642F5DBD2
:101E900027A0FEF7C9F91B48008882B221462948CD
:101EA00000F018F91748016827A0FEF7BDF90026D1
:101EB00005E02448815D1CA0FEF7B6F9761C1148A8
:101EC00000688642F5DB1AA0FEF7AEF90D480088DF
:101ED00082B21C490C48FEF799FE21490870084659
:101EE0000078012806D121461EA0FEF79DF90020AA
:101EF000BDE8F08125A0FEF797F90120F8E7002062
:101F0000F6E7000050000020900000205A58493E9B
:101F1000D0B4C8EBB5C4CAFDBEDDCEAA282564295D
:101F20003A200D0A00000000253032582000000041
:101F30000D0A2D2D2D2D2D2D2D2D2D2D2D2D0D0A57
:101F400000000000900100205A58493EB6C1B3F687
:101F5000B5C4CAFDBEDDCEAA28256429200D0A001D
:101F6000240000205A58493E416464723A30782572
:101F70003038582CB4AED0D0666C617368D0B4B62B
:101F8000C1B3C9B9A6210D0A000000005A58493E44
:101F9000B4AED0D0666C617368D0B4B6C1CAA7B015
:101FA000DC210D0A0000000029B1064AD269024373
:101FB000044BDA6104E0034AD2698243014BDA61DF
:101FC000704700000010024029B1064A926902439E
:101FD000044B9A6104E0034A92698243014B9A617F
:101FE000704700000010024030B50021002200249C
:101FF00000232D4D6D6805F00C0121B1042905D099
:10200000082923D105E0294D056022E0274D056010
:102010001FE0254D6D6805F47012234D6D6805F4C1
:102020008034022505EB92421CB9214D55430560D1
:102030000BE01D4D6D6805F400351DB11C4D554379
:10204000056002E0194D5543056002E0174D05603B
:1020500000BF00BF144D6D6805F0F0010909154D72
:102060006B5C0568DD4045600F4D6D6805F4E0610F
:10207000090A104D6B5C4568DD4085600A4D6D684E
:1020800005F46051C90A0B4D6B5C4568DD40C560C5
:10209000054D6D6805F44041890B074D6B5CC568C3
:1020A000B5FBF3F5056130BD0010024000127A0067
:1020B00000093D00780000208800002021B102883E
:1020C00042F04002028004E002884FF6BF731A40DB
:1020D0000280704770B505460C4616464FF4805195
:1020E0001048FEF784FE032000F0B2F9C4F3074065
:1020F00000F0AEF9C4F3072000F0AAF9E0B200F056
:10210000A7F904E0FF2000F0A3F928706D1C301E31
:10211000A6F101018EB2F5D14FF480510148FEF7CE
:1021200068FE70BD000C01402DE9F05F07460E46C9
:1021300014464FF00008C146C2460025AB4606F0E3
:10214000FF0ACAF10000C5B22046E11704EB116195
:10215000C1F30728E11704EB11610912A4EB012177
:1021600001F0FF09BAF1000F20D1B8F1000F05D13D
:1021700022463146384600F0CBF864E009E04FF4DF
:1021800080723146384600F0C3F806F5807607F5D0
:102190008077B8F10000A8F1010101F0FF08EED14D
:1021A0004A463146384600F0B3F84CE0B8F1000F2B
:1021B00018D1A94510DDA9EB050000F0FF0B2A4658
:1021C0003146384600F0A4F82E442F445A46314692
:1021D000384600F09DF836E022463146384600F099
:1021E00097F830E0601B84B22046E11704EB1161E0
:1021F000C1F30728E11704EB11610912A4EB0121D7
:1022000001F0FF092A463146384600F081F82E4495
:102210002F4409E04FF480723146384600F078F8D8
:1022200006F5807607F58077B8F10000A8F1010186
:1022300001F0FF08EED1B9F1000F04D04A46314653
:10224000384600F065F8BDE8F09F000000B587B0A3
:1022500001210820FFF7B8FE01218803FFF7A4FE43
:102260004FF40050ADF8040003208DF8060018204C
:102270008DF8070001A92448FEF7DDFC4FF48040EB
:10228000ADF8040001A92048FEF7D5FC4FF400404A
:10229000ADF8040001A91C48FEF7CDFC4FF48050B6
:1022A000ADF8040010208DF8070001A91648FEF7CC
:1022B000C2FC4FF480511448FEF79BFD0020ADF89E
:1022C00008004FF48270ADF80A000020ADF80C0051
:1022D0000220ADF80E000120ADF810004002ADF86C
:1022E00012000820ADF814000020ADF816000720F9
:1022F000ADF8180002A9054800F002F901210348D1
:10230000FFF7DCFE07B000BD000C014000380040C4
:1023100070B505460C46164600F0D2F84FF48051D1
:102320001348FEF764FD022000F092F8C4F3074062
:1023300000F08EF8C4F3072000F08AF8E0B200F055
:1023400087F8B6F5807F01DD4FF4807603E02878CA
:1023500000F07EF86D1C301EA6F101018EB2F6D1A0
:102360004FF480510248FEF744FD00F08DF870BD37
:10237000000C014010B500244FF480510C48FEF7CA
:1023800036FDAB2000F064F8FF2000F061F8FF207C
:1023900000F05EF8FF2000F05BF8FF2000F058F836
:1023A00004464FF480510248FEF723FD204610BD3D
:1023B000000C01402DE9F0410024002500260027F3
:1023C0004FF480510F48FEF712FD9F2000F040F8B7
:1023D000FF2000F03DF80546FF2000F039F80646E2
:1023E000FF2000F035F807464FF480510548FEF70E
:1023F00000FD280440EA062040EA07042046BDE824
:10240000F0810000000C014010B5044600F058F8BF
:1024100000F03AF84FF480510C48FEF7E8FC202019
:1024200000F016F8C4F3074000F012F8C4F30720D8
:1024300000F00EF8E0B200F00BF84FF480510348C2
:10244000FEF7D7FC00F020F810BD0000000C0140A2
:1024500010B5044600BF02210A4800F043F80028E6
:10246000F9D02146074800F049F800BF012105488E
:1024700000F038F80028F9D0024800F03CF8C0B26B
:1024800010BD00000038004010B500244FF480510A
:102490000A48FEF7ACFC0520FFF7DAFF00BFFF207B
:1024A000FFF7D6FF044604F001000028F7D14FF4EF
:1024B00080510248FEF79DFC10BD0000000C014059
:1024C00010B54FF480510648FEF791FC0620FFF747
:1024D000BFFF4FF480510248FEF78BFC10BD000097
:1024E000000C01400246002013890B400BB1012073
:1024F00000E000207047014688897047818170475D
:1025000010B50022028802F441520B884C88234304
:102510008C882343CC8823430C8923434C89234351
:102520008C892343CC8923431A430280838B4FF247
:10253000FF74234083830B8A038210BD7047000021
:102540000EB54FF6FF705023A022002100900846E0
:10255000FEF75AFD002010214FF6FF724FF478432A
:10256000CDE90021029027A201460520FFF759FB83
:10257000284810231A46002100909020FFF71EFBE8
:10258000254820231022192100908C20FFF716FBEC
:10259000224828232422122100905F20FFF70EFBFF
:1025A0001F481C2328221E2100902D20FFF706FB28
:1025B0001C4826232122142100900520FFF7FEFA53
:1025C00000F036F80C204FF6FF7145F25842CDE985
:1025D000002102901448006882B2012341218F201B
:1025E000FFF756FA00200C214FF6FF7245F25843D0
:1025F000CDE9002102900DA241219520FFF711FBAA
:102600000EBD00005A6F6F6D6558706C6F72652E4D
:10261000636E0000C49D00086281000822760008F5
:10262000626D000896630008280000204D0000003D
:102630000EB5012010214FF6FF72CDE90021029066
:102640003F49098801EB8101142202EBC101C91C39
:1026500088B24FF478433BA23A21FFF7E2FA012017
:1026600010214FF6FF72CDE900210290344909880C
:1026700001EB8101142202EBC101C91C88B24FF4A5
:10268000784330A23B21FFF7CCFA4FF6FF703B2393
:1026900027223A2100900420FEF791FC4FF6FF70AC
:1026A0003B2356223A2100902C20FEF788FC4FF65F
:1026B000FF703B2384223A2100905E20FEF77FFCCE
:1026C0004FF6FF703A239D22392100908B20FEF7B0
:1026D00076FC1B48006848B94FF478403B2327221A
:1026E0003A2100900420FEF76AFC28E014480068B4
:1026F000012809D14FF478403B2356223A2100901B
:102700002C20FEF75CFC1AE00D480068022809D175
:102710004FF478403B2384223A2100905E20FEF75C
:102720004EFC0CE006480068032808D14FF47840BE
:102730003A239D22392100908B20FEF740FC0EBDEC
:102740002C0000205E00000010B500F001F810BD64
:102750000CB50020019000903348006840F48030B0
:102760003149086000BF3048006800F40030009034
:102770000198401C0190009818B90198B0F5A06F1D
:10278000F1D12948006800F4003010B10120009018
:1027900001E0002000900098012843D12348006800
:1027A00040F01000214908600846006820F003004E
:1027B00008600846006840F0020008601A48406857
:1027C000194948600846406848600846406840F437
:1027D000806048600846406820F47C1048600846E5
:1027E000406840F4E81048600846006840F0807097
:1027F000086000BF0C48006800F000700028F9D0A5
:102800000948406820F003000749486008464068CE
:1028100040F00200486000BF0348406800F00C0030
:102820000828F9D10CBD0000001002400020024031
:102830003EB505464F239F2200210846FEF73AFB8E
:10284000012405E021460C48006800F017F8641CDC
:10285000812CF7DB10204FF6FF7145F25842CDE98D
:102860000021029004480088801E82B203230021C8
:102870000820FFF758F93EBD300000202DE9F04355
:10288000B3B006460D4600274FF480780024701E32
:1028900007EBC037424607EB05211748FFF71AFC44
:1028A000002006E0144A00F10A01515C01AA11540B
:1028B000401CC828F6DB4FF0000917E0012D06D1B7
:1028C0000020FFF7D8F90020FFF7D5F90BE0012130
:1028D00001EB440101AA505CFFF7CDF901A911F801
:1028E0001400FFF7C8F9641C09F10109B9F1640F7C
:1028F000E4DB33B0BDE8F08390010020042808D168
:102900004FF0E021096941F004014FF0E02211612C
:1029100007E04FF0E021096921F004014FF0E022C7
:10292000116170477047000010B51348006840F00F
:1029300001001149086008464068104908400E49E6
:102940004860084600680E4908400B490860084680
:10295000006820F4802008600846406820F4FE00EB
:1029600048604FF41F008860FFF7EEFE4FF00060F4
:102970000449086010BD0000001002400000FFF88C
:10298000FFFFF6FE08ED00E010B50121154800F04C
:1029900046F830B314480078401C134908701348B7
:1029A0000088401C114908800F480078052804DD84
:1029B000FEF724FA00200C4908700C480088B0F596
:1029C000FA7F0ADD0A4A0B490B4800F0CFFB0120D1
:1029D0000A4908700020054908800121014800F0DB
:1029E0000FF810BD00040040580000205A000020DD
:1029F00040000020380000203C000020190000208A
:102A0000CA430282704721B1028842F0010202806B
:102A100004E002884FF6FE731A400280704730B51A
:102A20000246002000230024158A05EA0103958947
:102A300005EA010413B10CB1012000E0002030BD13
:102A40001AB183890B43838102E083898B4383819D
:102A500070470000002202881D4B98420ED01D4B8B
:102A600098420BD0B0F1804F08D01B4B984205D054
:102A70001A4B984202D01A4B984204D14FF68F73EA
:102A80001A404B881A43174B984207D0164B98426E
:102A900004D04FF6FF431A40CB881A4302808B883C
:102AA00083850B8803850A4B98420BD0094B9842CB
:102AB00008D00E4B984205D00D4B984202D00D4BDA
:102AC000984201D10B7A038601238382704700006C
:102AD000002C014000340140000400400008004088
:102AE000000C004000100040001400400040014075
:102AF00000440140004801407FB505460C460121D5
:102B00000220FFF751FA0020ADF80A00ADF80600E8
:102B1000ADF80850ADF8044001A90E48FFF79AFF40
:102B2000012211460B48FFF78BFF1D208DF8000096
:102B300001208DF8010002208DF8020001208DF89F
:102B400003006846FFF716F901210248FFF75BFF13
:102B50007FBD00000004004010B540F22551184828
:102B600000F04BF8012816D1154800F001F915497D
:102B7000B1F80211134A50541046B0F80201401C3B
:102B800080B21146A1F80201B0F5807F17DD002068
:102B9000A1F8020113E040F22441094800F02DF8A9
:102BA00001280CD100200749B1F80211054A505400
:102BB0000120114681F80001014800F0D9F810BD4C
:102BC00000380140F402002021B1828942F4005211
:102BD000828104E082894DF6FF731A40828170473A
:102BE00002460020B1F5007F00D100BF13880B40E2
:102BF0000BB1012000E00020704770B502460024B0
:102C000000230025002040F66A16B14200D100BF23
:102C1000C1F3421501F01F03012606FA03F3012D4B
:102C200002D19689334006E0022D02D1168A334044
:102C300001E0968A33400C12012606FA04F4168845
:102C4000344013B10CB1012000E0002070BDF0B59C
:102C50000346002400260025002040F66A17B942EA
:102C600000D100BF1846C1F3421401F01F0601272E
:102C700007FA06F5012C01D10C3004E0022C01D139
:102C8000103000E014301AB107682F43076002E0EB
:102C90000768AF430760F0BD2DE9F04786B00546F1
:102CA0000E460024A24600BFA1460027B08900B10D
:102CB00000BF2F462C8A4CF6FF700440F088044376
:102CC0002C82AC894EF6F3100440B0883189084359
:102CD000718908430443AC81AC8A4FF6FF4004403D
:102CE000B0890443AC8201A8FFF77EF91F488742F0
:102CF00002D1DDF810A001E0DDF80CA0A88900F4F5
:102D0000004040B10AEBCA0000EB0A1031684900EC
:102D1000B0FBF1F807E00AEBCA0000EB0A103168DB
:102D20008900B0FBF1F86420B8FBF0F00401200941
:102D3000642101FB1089A88900F4004040B13220D1
:102D400000EBC900B0FBF1F000F00700044308E01D
:102D5000322000EB09106421B0FBF1F000F00F000D
:102D600004432C8106B0BDE8F08700000038014024
:102D700001468888C0F308007047C1F308028280CA
:102D8000704700BFFEE7000010B586B00446002083
:102D90000590019002900390049001218803FFF7B1
:102DA00013F901210420FFF70FF94FF40070ADF87B
:102DB000140003208DF8160018208DF8170005A9BF
:102DC0002148FDF738FF4FF48060ADF8140004206F
:102DD0008DF8170005A91C48FDF72DFF0194002070
:102DE000ADF810000C20ADF80E000020ADF80C007E
:102DF000ADF80A00ADF8080001A91448FFF74CFF30
:102E0000012240F225511148FFF721FF012240F233
:102E100024410E48FFF71BFF01210C48FFF7D4FEA9
:102E20004FF48060FEF7DEFF25208DF800000120C2
:102E30008DF8030002208DF801008DF8020068462D
:102E4000FEF798FF06B010BD0008014000380140B1
:102E5000490050EAC12018BF04204A0D18BF40F0B5
:102E6000010040F2FF72B2EB515F08BF40F0020078
:102E7000012808BF052070472DE9F0414F1E00EBE7
:102E8000C7010446D1E9000115461E4637F0060287
:102E90000DD02A46334602F061FB7F1E04EBC703C8
:102EA000D3E9002302F0E0F837F00602F1D1022F57
:102EB00025D0042F13D0062F18BFBDE8F0812A4675
:102EC000334602F04BFBD4E90A2302F0CDF82A4640
:102ED000334602F043FBD4E9082302F0C5F82A4642
:102EE000334602F03BFBD4E9062302F0BDF82A4644
:102EF000334602F033FBD4E9042302F0B5F82A4646
:102F0000334602F02BFBD4E9022302F0ADF82A4647
:102F1000334602F023FBD4E90023BDE8F04102F080
:102F2000A3B80000002213461046014902F058B928
:102F30000000F03F02F098B80022134610461146F8
:102F400002F04EB940F2013200204FF0E04103F0B0
:102F5000DCB90000024A0020110703F0D6B90000D6
:102F600001FDFFFF30380A2801D201207047002000
:102F7000704700BF704700002DE9F14F82B06848EC
:102F80008069C1174FF4FA33C41A61F10005A4FB3C
:102F9000041005FB040004FB05026148B0F91000B1
:102FA0004FEAE07CA1FB008A02FB00A001FB0C09B8
:102FB0005B48B0F90E00C117A0FB042301FB0431EC
:102FC00000FB0510400440EAD230510411EB080820
:102FD00040EB09095248B0F90C0018F1000849EB20
:102FE000C009A4FB041005FB040004FB05024C48C7
:102FF000B0F90A004FEAE07CA1FB003A02FB00A016
:1030000001FB0C004FEA132141EA00614FEA202244
:103010004348B0F908004FEAE073A446A0FB0CBE99
:1030200003FB04E300FB05304FEA003040EA1B508D
:103030004FEA0B33CC1842EB0005231C45F5004C3E
:103040003749C8880022A3FB00A10CFB001003FB3A
:1030500002014C10CD17002184EA010069400843A9
:1030600001D1BDE8FE8F0298C0F58010C717064653
:10307000F80740EA5600F207B2EB080160EB0902DC
:1030800040F635400023A1FB00CA02FB00A001FB73
:10309000030022462B46CDE900C060460199FDF7AA
:1030A0009EF806460F461E48B0F91600C217710B6F
:1030B00041EAC74C7B13A0FB0C1A02FB0CA200FBDD
:1030C0000322700B40EAC74C7B13A1FB0C0A02FBE6
:1030D0000CA201FB0321400E40EAC1144D1610481A
:1030E000B0F91400C117A0FB062301FB063100FB59
:1030F0000711D00C40EA41384FEAE149311947EB5A
:10310000050011EB080140EB0900090A41EA0061E2
:103110000348B0F9120000010E183046A1E7000084
:103120000004002030B50146CC100F4D2D88A4EBD3
:1031300045040D4DB5F902506C43E2120A4C248847
:10314000C4EB211464432413074DB5F904506C43B8
:10315000A313D418044DAC612C46A46904EB840479
:103160008034201230BD0000000400202DE9F05F03
:1031700004468946924600F04DF81F480068FFF764
:10318000D1FF834602F084F9054600221B4B02F072
:1031900027F8074601F036FF19490860084600681D
:1031A00002F0ECFC07460022164B02F0FDFB054640
:1031B00001F028FF1249086013480068FFF7DCFEA1
:1031C000834602F07CF905460022104B02F008F815
:1031D000074601F017FF0E49086021460C4801F030
:1031E0006BFE07480068C9F80000204600F08EF822
:1031F000CAF80000BDE8F09F6800002000005940B8
:103200007000002000000440640000200000D9404D
:10321000740000201CB56B460622F721EC20FDF758
:103220008DFC9DF8000000039DF8011040EA01109C
:103230009DF8021040EA1110074908609DF803004C
:1032400000039DF8041040EA01109DF8051040EAC3
:103250001110024908601CBD6400002068000020B5
:1032600010B51B48007808B1012010BDFDF734FBF4
:10327000142000F0ABF8D021EC20FDF78FFC1549AD
:10328000087008460078582805D10846017812A031
:10329000FCF7CAFF06E00F48017815A0FCF7C4FF51
:1032A0000020E2E7184B18228821EC20FDF746FCAD
:1032B000B322F421EC20FDF791FC1422F521EC203F
:1032C000FDF78CFC01200249087000BFCDE700002B
:1032D0006100002060000020424D5032383020490B
:1032E000442049533A20307825580D0A0000000048
:1032F000424D5032383020494420455252204953E3
:103300003A20307825580A00000400202DE9FF5F9C
:1033100082460021DAF8000002F014FF25D214489A
:10332000DAF8001002F0C4FC834602F027FC114AD0
:10333000114BCDE9000101F0D3F8064600220F4BF6
:1033400002F032FB4FF0C0420D4BCDE9020102F01A
:1033500005F980464FF000420A4B01F041FF044658
:1033600001F050FE04B0BDE8F09F0020FAE7000035
:10337000CDEC7D4428610C878A5AC83F0000F03F9D
:1033800066A27240BE9F7A3F10B56FF00400FFF74F
:10339000B5FA0A4800680A49B0FBF1F0094908701B
:1033A0000846007800EB4001C1EBC0104FF6FF71FA
:1033B00001EAC0000449088010BD000000000020A0
:1033C00000127A008C0000208E0000200146114A75
:1033D00012884A434FF0E0235A6100229A611A464C
:1033E000126942F001021A6100BF4FF0E022106939
:1033F00000F001021AB100F48032002AF5D04FF03B
:10340000E022126922F001024FF0E0231A6100224B
:103410009A6170478E0000200146114A12784A4393
:103420004FF0E0235A6100229A611A46126942F075
:1034300001021A6100BF4FF0E022106900F00102A2
:103440001AB100F48032002AF5D04FF0E022126960
:1034500022F001024FF0E0231A6100229A617047C6
:103460008C00002070B504460D4600BF4021054881
:10347000FFF7B6FB0028F9D0A1B20248FFF77DFCA8
:10348000204670BD003801408CB0FFF77DFFFEF78D
:1034900033FC4FF46140FFF777FCFEF7D7FEFDF7F2
:1034A000F5FD4FF6FF705023A02200210090084642
:1034B000FDF7AAFD41F61F411320FFF71DFBFFF7A3
:1034C000CFFEFD4AFD49FE48FFF750FE4FF4FA706B
:1034D000FFF77CFFFB49FA48006802F067FD0B909C
:1034E00002F0DCFCF8490860F649F448006802F094
:1034F0005DFD0B9002F0D2FCF4490860F149EE4802
:10350000006802F053FD0B9002F0C8FCF04908601F
:10351000ED480168EFA0FCF787FE6420FFF756FF37
:10352000EA480168F0A0FCF77FFE6420FFF74EFF39
:10353000E7480168F1A0FCF777FE6420FFF746FF3B
:103540004FF4FA70FFF742FFDB4ADC49DC48FFF733
:103550000DFE4FF4FA70FFF739FFDA49D8480068DA
:1035600002F024FD0B9002F099FCD7490860D54980
:10357000D248006802F01AFD0B9002F08FFCD3498C
:103580000860D049CC48006802F010FD0B9002F0B2
:1035900085FCCF490860CC480168DDA0FCF744FEFB
:1035A0006420FFF713FFC9480168DEA0FCF73CFE6A
:1035B0006420FFF70BFFC6480168DFA0FCF734FE6C
:1035C0006420FFF703FF0020E04908600120E04984
:1035D00081F83F0081F84A0081F8550081F86300C6
:1035E000FEF7C8FEDB490860FEF7E4FEDA49086032
:1035F000D848026808460168D8A0FCF715FED648EE
:103600000068E049884200D000BFDFA0FCF70CFE54
:10361000D1480068E349084400281BD0012804D0A1
:10362000022809D003281CD10DE0DFA0FCF7FCFD27
:103630000220E54908601BE0E4A0FCF7F5FD04204A
:10364000E149086014E0E8A0FCF7EEFD0820DE493F
:1036500008600DE0EBA0FCF7E7FD0120DA49086007
:1036600006E0EFA0FCF7E0FD0020D749086000BFAE
:1036700000BF4FF4FA70FFF7A9FE0120B3490860BC
:10368000FEF75EFFF2E3ED4890F8000101287DD1DE
:103690000B900822EAA1E948FDF7B8FA002876D095
:1036A000E648407BE549097B40EA21200490E34855
:1036B000C17A807A41EA20200390E048007A0290A3
:1036C0000146E2A0DDE90323FCF7AEFD4FF6FF70F3
:1036D0005023A022002100900846FDF795FCD74911
:1036E00003C9CDE90601002010214FF6FF7245F213
:1036F0005843CDE90021029006AA01460220FEF7B8
:1037000090FA00200C214FF6FF7245F25843CDE9A4
:1037100000210290D8A210210220FEF782FA0C208C
:103720004FF6FF7145F25842CDE900210290C3489F
:10373000007A032302461C2104900220FEF7F3F9CD
:103740000C204FF6FF7145F25842CDE9002102905E
:10375000BA48807AB949C97A40EA2120042302464E
:103760001C2104902020FEF7DEF90C204FF6FF719B
:1037700045F25842CDE900210290B048007BAF49A4
:10378000497B40EA21200423024601E036E22AE098
:103790001C2104903E20FEF7C6F90020049007E0AB
:1037A000A6490498095CB84A11540498401C049036
:1037B00004980E28F4DB0021B34881739F48007AF7
:1037C0000490FEF71BFB08B1012000E000200590EB
:1037D000059820B9AC49ADA0FCF726FD02E0B5A0E4
:1037E000FCF722FDF7E10822BBA19448FDF70EFA91
:1037F0000028F7D09148407A09909048007A0890C4
:103800000146B8A0099AFCF70FFDC0488B49026831
:103810009D48FCF769FE002010214FF6FF7245F22B
:103820005843CDE900210290B9A230210220FEF7D1
:10383000F8F900200C214FF6FF7245F25843CDE90C
:1038400000210290B4A22A210846FEF7EAF90C20D2
:103850004FF6FF7145F25842CDE9002102907748BA
:10386000007A03230246362109902A20FEF75BF9ED
:103870000C204FF6FF7145F25842CDE9002102902D
:103880006E48407A03230246362109904220FEF713
:103890004AF900200C214FF6FF7245F25843CDE95A
:1038A000002102909FA230216A20FEF7BAF90C2174
:1038B0004FF6FF7038E10000400000203800002083
:1038C0003C00002000007A44440000204800002012
:1038D0004C000020626D703238305F707265737317
:1038E0003A25640D0A000000626D703238305F7452
:1038F000656D70203A25640D0A000000626D70321B
:1039000038305F68696768203A25640D0A0D0A003F
:10391000626D703238305F7072657373323A25644D
:103920000D0A0000626D703238305F74656D703260
:10393000203A25640D0A0000626D703238305F68ED
:1039400069676832203A25640D0A0000B4012242FA
:103950008F0200201C000020200000200D0A466C71
:1039600061736849442069732030782558200D0A16
:103970004465766963652049442069732030782561
:10398000580D0A001540EF000D0ABCECB2E2B5BDBF
:10399000B4AED0D0666C617368D0BEC6AC210D0ADF
:1039A00000000000ECBF10FF0D0A666C617368D068
:1039B000BEC6ACD0CDBAC5CEAA5732355131364984
:1039C00044210D0A00000000280000200D0A666C4A
:1039D000617368D0BEC6ACD0CDBAC5CEAA57323559
:1039E000513332210D0A00000D0A666C617368D0F4
:1039F000BEC6ACD0CDBAC5CEAA5732355136342169
:103A00000D0A00000D0A666C617368D0BEC6ACD0AA
:103A1000CDBAC5CEAA573235513830210D0A000033
:103A20000D0A666C617368D0BEC6ACD0CDBAC5CE87
:103A3000AAC6E4CBFB210D0A00000000F40200201E
:103A40005A58495F48454144000000005A58493ED1
:103A5000494D4720484541442C204E6F2E3A253091
:103A600033642C2057696474683A25642C204869B3
:103A700067683A25640D0A004E6F2E2020572020DB
:103A80002020482020202000900000205A58493E45
:103A9000494D472048454144205772697465204686
:103AA0006C617368205375632E282573290D0A0DE8
:103AB0000A0000005A58493E494D472048454144B4
:103AC00020577269746520466C617368204661698D
:103AD0006C2E0D0A000000005A58495F44415441C1
:103AE000000000005A58493E494D47204441544186
:103AF0002C204E6F2E3A253033642C205061636B9E
:103B00006167654E6F3A25640D0A00005000002081
:103B1000444154413A0000004E6F2E20506B674ED6
:103B20006F00000030780000CDE90001FE48807A87
:103B300045F258430246302109907820FDF76AFF8C
:103B40000C214FF6FF70CDE90001F748C07A45F22D
:103B500058430246302109908620FDF75BFF0C2078
:103B60004FF6FF71CDE90010EF48007B45F2584356
:103B70000246302109909420FDF74CFF0020099067
:103B800007E0E9490998095CE84A11540998401C82
:103B900009900998D228F4DB0020E44981F8D2008A
:103BA000E148407A0990E048007A08900999FEF7C8
:103BB00025F908B1012000E000200A900A9830B9E8
:103BC0000A980B90D949DAA0FCF72EFB02E0E2A09C
:103BD000FCF72AFB00BF0020D34981F80001A1F8BF
:103BE00002010846407A802807D1FEF7A9FC01208F
:103BF000E24908700020E249087000BFE1480078FF
:103C000001287DD10020DF490870DF49DF480068C6
:103C100002F0CCF90B9002F041F9DD490860DA4975
:103C2000DC48006802F0C2F90B9002F037F9DA497B
:103C30000860D549D948006802F0B8F90B9002F045
:103C40002DF9D7490860CD48007801287ED1D548A4
:103C500000780028FAD10C214FF6FF721F23CDE91E
:103C600000210290D0A241210220FDF7DAFF0021BD
:103C7000C848006802F066F92DD200200C214FF6EA
:103C8000FF721F23CDE900210290C8A241210E201E
:103C9000FDF7C7FFBF48006880F000400B900C2084
:103CA0004FF6FF7145F258420423CDE900210290FE
:103CB000412114200B9AFDF75BFE00200C214FF6EA
:103CC000FF721F23CDE900210290B9A241213220C9
:103CD000FDF7A7FF1DE00C204FF6FF7145F258429B
:103CE0000423CDE900210290AA48412102680E2058
:103CF000FDF73EFE00200C214FF6FF721F2300E06F
:103D0000B1E1CDE900210290A9A241212C20FDF7CB
:103D100088FF00200C214FF6FF721F23CDE9002100
:103D20000290A4A241213220FDF77BFF9748006852
:103D300002F0B4F880B20B900C204FF6FF7145F200
:103D400058420423CDE90021029000E046E04121E1
:103D500044200B9AFDF7E7FE8C48006802F09EF8BD
:103D6000089002F0D7F8099088480168099802F095
:103D70001AFA91490A9002F019F90B900C204FF6AB
:103D8000FF7145F258420423CDE900210290412100
:103D90005C200B9AFDF7ECFD00200C214FF6FF7222
:103DA0001F23CDE90021029084A241217A20FDF752
:103DB00038FF7A48006802F08DF880B20B900C2032
:103DC0004FF6FF7145F258420423CDE900210290DD
:103DD000412186200B9AFDF7A6FE44E16848007851
:103DE0000228FAD1002010214FF6FF7242F612335A
:103DF000CDE90021029072A20C210220FDF7F2FA17
:103E000000216448006802F09DF830D2002018219B
:103E10004FF6FF7245F25843CDE90021029063A2AC
:103E200006213220FDF7FDFE5A48006880F0004070
:103E30000B9018204FF6FF7145F258420423CDE94C
:103E40000021029006213E200B9AFDF791FD0020F3
:103E500010214FF6FF7245F25843CDE90021029040
:103E600059A20A217A20FDF7BDFA1DE097E2182039
:103E70004FF6FF7145F258420423CDE9002102902C
:103E80004448062102683220FDF772FD002010210F
:103E90004FF6FF7245F25843CDE9002102904AA245
:103EA0000A216E20FDF79EFA002010214FF6FF72C6
:103EB00042F61233CDE90021029044A22021FDF701
:103EC00091FA3248006801F0E9FF80B20B901020AF
:103ED0004FF6FF7145F258420423CDE900210290CC
:103EE000202140200B9AFDF71EFE002010214FF6E6
:103EF000FF721F23CDE90021029037A2202160200C
:103F0000FDF78FFE2148006801F0C8FF079002F01E
:103F100001F808901D480168089802F044F92F49FB
:103F2000099002F043F85BE0F402002090000020CA
:103F30005A58493E494D47204441544120577269DF
:103F4000746520466C617368205375632E28257351
:103F5000290D0A0D0A0000005A58493E494D4720D4
:103F60004441544120577269746520466C617368FE
:103F7000204661696C2E0D0A000000001700002029
:103F8000180000201900002000007A443C000020A6
:103F9000440000203800002048000020400000209D
:103FA0004C00002034000020543A00002D00000096
:103FB0004300000020503A000000C8425061000059
:103FC000CEC2B6C8A3BA0000A1E60000B4F3C6F89A
:103FD000D1B9A3BA000000002E00000000401C462A
:103FE0000A9001F077FF80B20B9010204FF6FF711E
:103FF00045F258420423CDE9002102902021682097
:104000000B9AFDF790FD002010214FF6FF7245F24C
:104010005843CDE900210290E2A220218820FDF73B
:1040200000FE002010214FF6FF7242F61233CDE958
:1040300000210290DCA234210220FDF7D3F9DC48F4
:10404000006801F02BFF80B20B9010204FF6FF713B
:1040500045F258420723CDE9002102903421322055
:104060000B9AFDF715FDD3480078012802D00228ED
:104070007DD135E0D0A0FCF7D7F8D548007840B91D
:10408000FEF75EFA0120D24908700020D14908707D
:1040900022E0D1480078012804D10020CE490870E0
:1040A000FEF74EFACD480068401CCC49086008462F
:1040B0000068032801DD002001E0C8480068C74906
:1040C00008604FF6FF704323A0223B2100900020A0
:1040D000FCF79AFFFEF7ACFA0020B64908705DE1E4
:1040E000BFA0FCF7A1F8BD480068012813D1B8486B
:1040F000007801280FD10020B54908700220B54989
:1041000008704FF6FF705023A0220021009008464F
:10411000FCF77AFF3DE1B1480068022852D1AC4873
:10412000007801284ED10020A94908704FF6FF7091
:104130005023A022002100900846FCF765FF0020D4
:1041400010214FF6FF7242F61233CDE900210290A2
:10415000A8A20146FDF765FD002010214FF6FF7271
:1041600042F61233CDE900210290A7A200E014E14B
:10417000FDF757FD002010214FF6FF7242F6123373
:10418000CDE900210290A6A22021FDF74AFD0020E2
:1041900010214FF6FF7242F61233CDE90021029052
:1041A000A4A23021FDF73DFD002010214FF6FF7243
:1041B00042F61233CDE900210290A4A24021FDF77E
:1041C00030FDE6E08548006803280DD1804800787E
:1041D000012809D18049087000205023A0220146FF
:1041E0000090FCF711FFD4E04FF6FF705023A0229F
:1041F000002100900846FCF707FF994800686428F2
:1042000001DD002001E096480068954908600846F5
:10421000006840B993483C2334220A2100903220A0
:10422000FDF7CCFCADE08E480068012851D100209C
:104230000B900A9049E0002009903AE00A9800EBC0
:104240008001099800EB81008749085C012816D19C
:1042500010214FF6FF72CDE9002102900A9802EA80
:10426000001008900021099801EBC00080B24FF4C3
:1042700078437EA207900899FDF7D3FC16E0012051
:1042800010214FF6FF72CDE9002102900A9802EA50
:10429000001008900021099801EBC00080B245F29F
:1042A000584373A207900899FDF7BBFC0998401C7E
:1042B000099009981428C1DB0A98052802DA0A989F
:1042C000401C0A900B98401C0B900B980528B2DB01
:1042D00057E06348006802284FD1012010214FF6B3
:1042E000FF7242F61233CDE90021029061A2002153
:1042F0000820FDF796FC012010214FF6FF7242F6D0
:104300001233CDE9002102905AA200210920FDF7C5
:1043100088FC002010214FF6FF720346CDE90021F2
:10432000029059A20820FDF77CFC002010214FF6D6
:10433000FF720346CDE90021029057A220210820F8
:10434000FDF76FFC002010214FF6FF720346CDE908
:104350000021029053A230210820FDF762FC0020CA
:1043600010214FF6FF720346CDE90021029052A2C0
:1043700040210820FDF755FC03E039480068FEF7AE
:1043800057FA37480068401C35490860002010493A
:10439000087000200749087000E000BF00BFFFF769
:1043A00072B9000068506100BAA3B0CEA3BA000091
:1043B00040000020160000204B45593A2053494E3A
:1043C000474C4520434C49434B2E0D0A000000004A
:1043D0001700002018000020340000202C000020CE
:1043E0004B45593A20484F4C4420434C49434B2EAF
:1043F0000D0A00004D43553A2053544D3332463197
:1044000030334338543600004950533A20302E3967
:1044100036272038305247422A313630000000001B
:104420004C4344204472697665723A2053543737BE
:104430003335530050726573737572652053656E22
:104440003A20424D5032383000000000506F7765FE
:104450007220534F433A2049503533303600000024
:1044600030000020628500088F0200202300000039
:104470002A0000005468656E2C204D792055706C20
:104480006F6164205069630057696474683A31361B
:1044900030444F5400000000486967683A3830449F
:1044A0004F540000436F6C6F723A31366269747317
:1044B00028353635290000004D5342204669727375
:1044C000743A59657300000010B50246012000E0FF
:1044D00050430B1EA1F10104E1B2F9D110BD00005F
:1044E0002DE9F04D1D460C4698B0174621F00041CD
:1044F00023F00043002814BF4FF0010C4FF0000CD4
:104500000CEB440CFE4A0CEB02064FEA620C6645CB
:104510002BD33E0018BF012606EB45061644F94A88
:10452000964222D3F84A53EA070C02D0944205D1AE
:1045300048B918B000201146BDE8F08D002808BF2A
:104540004FF0000C01D04FF0010C0CEB440212F5BF
:10455000001F0AD8002F14BF4FF0010C4FF0000CC1
:104560000CEB450212F5001F07D918B03A462B464E
:104570002146BDE8F04DFEF7DDBC0022DFF88CA33C
:10458000002CB8BF534526DADFF884C36345A8BFC3
:10459000022220DADFF870C39C451CDCDFF874C30C
:1045A0000CEB235CBCF1140F08DDCCF1340627FAC8
:1045B00006FC0CFA06F6BE420DD108E05FB9CCF15C
:1045C000140623FA06FC0CFA06F69E4203D10CF000
:1045D0000102C2F1020251EA000C19D1002D17DAD2
:1045E000002C18BF022A01D0012A07D00220FCF7B4
:1045F00040F818B0BDE8F04DFEF794BC0220FCF77F
:1046000038F8FEF78FFC18B081F00041BDE8F08D5E
:10461000B7F1000C6CD1534525D104F1804212F55D
:10462000801201BF00280020B74918B008BFBDE8BC
:10463000F08DB548884207DC002DA1BF60462946B1
:1046400018B0BDE8F08D07E0281E05DA80F00041C3
:1046500018B06046BDE8F08DAF497944D1E900015A
:1046600018B0BDE8F08DDFF8A0C2634525D1002D5C
:104670001FDA19B1514512D1D8B909E0002840F02C
:10468000EC82A24A214618B062F31E01BDE8F08D0B
:104690000020214618B060F31E01BDE8F08D08DA55
:1046A00018B02346BDE8F04D02460020614600F0F8
:1046B00097BD18B02146BDE8F08D514518DAB5F127
:1046C000804F0DD0A5F1005CBCF1FF5C10D1B4F1BE
:1046D000000C0DDB18B06146BDE8F04D00F06CBC7D
:1046E000234618B00246BDE8F04D194600F036BF2B
:1046F000060024F0004C3BD1D9B1514533D1002CF8
:1047000006DD002DA1BF0020514618B0BDE8F08D98
:10471000002C01DD002D1BDB002C13DA002D11DB3A
:10472000012A4FF0000014BF78497C4918B0BDE859
:10473000F08D022A18BF002C0AD0012A08D1002CC3
:1047400006DA0AE0002CB8BF002D11DA012A04D0E5
:10475000002018B00146BDE8F08D18B000204FF0E1
:104760000041BDE8F08DA1F14050B0F17F601AD05A
:10477000012000EBE47050EA020421D0624C521E8A
:104780004FF0000B104304BF4FF0000B644C654822
:1047900083427CDD644A654893421FDD884217DB13
:1047A000002D25DB37E0002C00DA4AB1022A0CBFCD
:1047B00001204FF0FF3018B0BDE8F04D00F068BEAA
:1047C0000120FBF756FF18B0BDE8F04DFEF7B4BB73
:1047D0004D4A8A4202DC002D0ADC1CE0814202DAEA
:1047E000002D18DA04E0484B994220DD002D12DD3F
:1047F0000220FBF73EFFFEF7A5FB05460E46002212
:1048000053465846214600F0A9FE18B066F31E0133
:104810002846BDE8F08D0220FBF72BFFFEF79AFB40
:104820000A46214618B062F31E01BDE8F08D002251
:104830003046614601F0B8F880460E466FF001023E
:1048400001F063FD4FF05532394B00F0BBFF42469B
:10485000334600F083FE0022364B00F0B3FF824661
:104860004246334604911046194600F077FE524600
:10487000049B00F073FE8A4600904FF0C0422E4B1E
:104880004046314600F06AFE2C4A2B4B00E027E000
:10489000CDE906015146009800F060FE8246019184
:1048A000274A284B4046314600F058FE5246019BAD
:1048B00001F07AF882460B4602460591DDE90601D1
:1048C00000F0D2FBDDE9062300268846304601F0E1
:1048D0006BF85246059B00F075FF024600F07EB96A
:1048E0000020B1F5801F07DA35223046614601F01D
:1048F0000CFD06466FF0340000EB215024E0000070
:10490000FFFF1F00FFFF0F000000F03F0000F07FDF
:104910000000404301FCFFFF0A7A00000000F0FFA6
:104920000000F0BF0000E0410000F043FFFFEF3F58
:104930005555D53F0000E03F4715F73FFE822B65F8
:1049400044DF5DF80BAE543EA0F2FF300190C1F39E
:10495000130040F07F6141F040510291FE498842CE
:10496000D8BF002004DDFD498142C8BF012001DD20
:104970000D9008E000200D900198401C01900298D5
:10498000A0F5801002900299F54878440B910D999A
:1049900000EBC100D0E900230F9330460A920B9937
:1049A00001F002F8CDE90601DDE90A2130460F9B4E
:1049B00000F05AFB02460B460020EA4900F010FCCA
:1049C000059102460B460090DDE9060100F0C6FDA8
:1049D0001490E5488A464FF0000878440299006830
:1049E00012904FF0005040EA61010D980F9B01EBCF
:1049F000804000F5002109910A9A129800F0D4FF36
:104A000032460B9B00F0DEFE4246534600F0A6FD08
:104A10000646029140465146099B129A00F09EFDBF
:104A2000DDE9062300F0CEFE3246029B00F0BCFF1B
:104A3000059B009A00F092FD0091149A0490534651
:104A40001046194600F08AFD06460246C7480B4646
:104A5000029106217844FEF70FFACDE90510029B7A
:104A600032461046194600F079FDDDE9053200F0C6
:104A700075FD05910646534640461946149A00F0C6
:104A8000F3FA009B049A00F069FD3246059B00F0A2
:104A9000EBFACDE90510424653461046194600F0A0
:104AA0005DFD0022B24B02910A9000F0DDFADDE9D3
:104AB000053200F0D9FA0E464246AD4B404600F0B2
:104AC00073FF029B0A9A00F06FFFDDE9053200F0E8
:104AD00079FE424602910A9033461046514600F054
:104AE0003DFDCDE906015346149A02990A9800F05B
:104AF00035FD8A460290334642460099049800F0FC
:104B00002DFD5346029A00F0AFFA82460B4602464C
:104B10000591DDE9060100F0A7FADDE90623002092
:104B20008846064600F040FF5246059B00F04AFECC
:104B3000824609914FF060428E4B3046414600F06C
:104B40000DFD049006918C4A8A4B5046099900F05D
:104B500005FD82460291894A894B3046414600F064
:104B6000FDFC5246029B00F07FFA864B7B440D9A77
:104B700003EBC203D3E9002300F076FA0E9007910D
:104B8000019800F085FC0591DDE9061382460E9A36
:104B9000049800F069FA7C4A7A440D9B02EBC30347
:104BA000D3E900230093029200F05EFA5246059B7F
:104BB00000F05AFA0026884652463046059B00F01F
:104BC000F3FE009B029A00F0EFFE069B049A00F0B1
:104BD000EBFE079B0E9A00F0F5FD024600200B4607
:104BE00002903846294600F0B9FC824601912B46D6
:104BF00038461946029A00F0D7FE3246434600F086
:104C0000ADFC5246019B00F02FFA07468A46324619
:104C100043462946029800F0A1FC05460E463A4656
:104C2000534600F021FA594A8846914221DBA8EB0D
:104C3000020353EA000210D12A46334600F0B4FEC4
:104C4000CDE90401524A534B3846514600F00CFA64
:104C5000DDE9042300F080FD21D20220FBF709FDED
:104C6000FEF770F90A46214618B062F31E01BDE84E
:104C7000F08D494B28F000429A4210D3474A08EB86
:104C8000020353EA00027FF4C6AD2A46334600F021
:104C90008BFE3A46534600F05FFD7FF6BCAD002226
:104CA000019228F000403E493E4A01EB20518242E9
:104CB00023DA481C4FF4801121FA00F040443A4AAC
:104CC000C0F30A517A44394BA1F2FF31CB4020EABC
:104CD0000303C0F3130040F48010C1F11401C84075
:104CE00012680190B8F1000FBCBF40420190284605
:104CF000314600F059FE05460E462A4633463846F0
:104D0000514600F0B1F94FF000084246284B4046AA
:104D1000059100F023FCCDE90601264A264B4046CA
:104D2000059900F01BFC009102902A46334640464C
:104D3000059900F039FE3A46534600F043FD1F4AFC
:104D40001F4B00F00BFC009B029A00F08DF9074608
:104D5000884602460B4635E08E9803007AB60B0073
:104D6000527600000000F03F8A760000B87500001F
:104D70000000084009C7EE3FFD033ADCF5015B1473
:104D8000E02F3EBE9074000054740000000090407C
:104D9000FE822B654715973C00CC904000346F3F56
:104DA00001FCFFFF0000E03FA0730000FFFF0F00C9
:104DB000432EE63F396CA80C615C20BEEF39FAFE49
:104DC000422EE63FDDE9060100F04EF9DDE906235B
:104DD00005460E4600F0E8FD3A46434600F0F2FC78
:104DE0000F462A46334600901046194600F0B6FB9F
:104DF000824602462E4888460B4605217844FEF737
:104E00003BF85246434600F0A9FB2A46334600F0E1
:104E1000D9FC80468A463B4628463146009A00F037
:104E20009DFB3B46009A00F01FF90691009000227E
:104E30004FF080434046514600F0B6FD0F460C90BF
:104E4000424653462846314600F088FB3B460C9AC2
:104E500000F0C6F9069B009A00F0A6FD2A463346EC
:104E600000F0A2FD0022134B00F0ACFC05460198B7
:104E70000E4601EB00510815002810DC284631468B
:104E8000019A01F042FAFDF7E3FF042808BFFEF79C
:104E900061F828463146019A01F037FA05460B467B
:104EA00018B02A4658462146BDE8F04D00F056BBE2
:104EB000407200000000F03F2DE9F05F0446894693
:104EC00000210D460E468A463749384A127851F875
:104ED0002200002100F0AEFF13D13349334A12788B
:104EE000206841F822002068C9F800002F480078A7
:104EF000401CC0B22D490870052853DB0020087003
:104F000050E02A48007850B1284A1278521E264BA9
:104F100053F82210206801F051F9834605E0224A37
:104F20001169206801F04AF98346584600F026FED0
:104F300021F0004107464FF020421D4B00F0D2FA0D
:104F40000FD21949194A1278206841F822001748EF
:104F50000078401CC0B215490870052801DB00200C
:104F600008704FF0000A0FE00F4951F82A0000F0D6
:104F700005FE07462A46334600F076F805460E46FB
:104F80000AF1010000F0FF0ABAF1050FECDB002284
:104F9000084B2846314600F023F9074600F032F866
:104FA000C9F80000BDE8F09F1C0400206C00002040
:104FB0009999B93F000014402DE9F04106460F468B
:104FC00000F00CFC041E0D4618BF0120284320F001
:104FD0000040C0F17F6000F1E040C00F0ED0301CF7
:104FE00018BF0120384320F00040C0F17F6000F17D
:104FF000E040C00F04BF0120FBF73BFB20462946E1
:10500000BDE8F08121F00042A2F16052B2F5801FAC
:1050100001F0004328BFD2F17F6C0BD95FEA001C7E
:1050200043EAC20242EB507018BF704728BF20F01D
:1050300001007047B2F5801FBCBF184670474FEAA9
:10504000410C1CF5001F02D2084601F076B870B57D
:1050500000F02EFB00000089FFF7F6BF4FF0004084
:10506000A0F580007047000010B591EA030F48BF1B
:1050700083F0004300F1A084841A71EB030C05D285
:10508000121943EB0C03001B61EB0C01DFF824E168
:105090004FEA1154A4EB135C1EEA430F18BF9EEABB
:1050A000445F73D023EA0E03DCF1200E21EA0451A1
:1050B00043F4801332D322FA0CFE10EB0E0023FAD5
:1050C0000CFE41EB0E01CCF1200E03FA0EFE10EBAC
:1050D0000E0051F10001B1F5801FCCF1200E32D24B
:1050E00001EB045112FA0EF2BDE8104058BF7047B0
:1050F000401C38BF5FEA420218BF7047002814BF47
:1051000020F0010041F100014FEA410313F5001FB7
:1051100038BF7047A1F1C04100F018BB012A43EB32
:105120000302ACF1200CDCF11F0E32BF4FF0000E79
:1051300023FA0CF310EB030041EB0451B4EB115FC5
:10514000D0D0A1EB045101F5801149085FEA30008D
:1051500001EB04510ED350F1000038BF12FA0EFEDD
:1051600008D1BDE81040C9E7401C38BF5FEA4202E1
:10517000CAD1C3E7BDE810404FEA410313F5001F51
:1051800038BF7047A1F1C04100F0E0BA9EEA445F29
:1051900008D011EA5E0FBDE8104004BF01F00041E5
:1051A00000207047BDE8104070B500F081FA00BFE4
:1051B00064FBBE3E0000E0FF02494FF0000001F03A
:1051C00072B800BF0000F87F491058BFC1F14041DC
:1051D0005B1058BFC3F140438B42EFF30080704730
:1051E0002DE9C04130B4DFF8A0C23CEA111418BF69
:1051F0003CEA131400F0EC8081EA03051CEA111468
:1052000044EAD57418BF1CEA131500F0C780A4EB5C
:1052100005044FF0004545EAC12145EAC32341EAB0
:10522000505143EA525304F17F74994204F500341B
:105230004FEAC0204FEAC22208BF904200F09C8093
:105240004FEA13650FF24016765D4FEA134506FBF1
:1052500005F7C7F1807706FB07F74FEAD737A7FBBB
:1052600003687642C8F58038A7FB06CE38BFA8F1A0
:10527000010807FB08E64FF0000EA6FB028CE6FBD8
:1052800003CEDCF1000CCEF1004E38BFAEF1010EC2
:10529000A6FB0C584FF000074FF00005E6FB0E8709
:1052A000A1FB08C6A0FB07CE16EB0E0645F10005D4
:1052B000E1FB076515F1E04E7EBFA4F580345FEA9F
:1052C00046066D4116F1800745F100054FEA1727A4
:1052D0004FEA066647EA0567A6F1DE46B6F1805F4B
:1052E0004FEA15251FD9384624F0010C05EBC4718F
:1052F000BCF1FE6F01EB0C1102D8F0BCBDE80081DF
:1053000024425CBF01F5801E9EEAC47F02D4F0BC3B
:10531000BDE80081244238D4F0BCA1F1C041BDE811
:10532000004100F013BA4FEAD22242EA43524FEA58
:10533000D323A7FB02864FEAD02040EA415007FB67
:1053400003661EEA0E0F4FEAD12105FB026658BF25
:10535000A6EB0056B6EB00564FEA520E4EEAC37E5D
:1053600018EB0E0E56EB530EBDD518EB02085E413E
:105370007F1C55F10005B6E74FF480154FF000078C
:105380004FF000064FF00008ADE7F0BC4FF0000012
:1053900001F1C04101F00041BDE8008111EA0C1F9C
:1053A0000CEA131500D00CE013EA0C1F00F0258066
:1053B0004FF00000F0BC81EA030101F00041BDE8BC
:1053C0000081F0BCBDE8004181EA030100F0BEB9F4
:1053D000F0BCBDE8004170B500F06AF9097EFC3E02
:1053E00000F007B881EA03014FF0000001F000412E
:1053F000704781EA030100F0A9B9F0BCBDE80041A3
:105400004FF0000021497047FFFDFBF9F7F5F4F27A
:10541000F0EEEDEBE9E8E6E4E3E1E0DEDDDBDAD84F
:10542000D7D5D4D3D1D0CFCDCCCBCAC8C7C6C5C4AD
:10543000C2C1C0BFBEBDBCBBBAB9B8B7B6B5B4B3C4
:10544000B2B1B0AFAEADACABAAA9A8A8A7A6A5A4AF
:10545000A3A3A2A1A09F9F9E9D9C9C9B9A99999873
:105460009797969595949393929191908F8F8E8E16
:105470008D8C8C8B8B8A89898888878786858584A3
:1054800084838382828181800000FF070000F87F8F
:1054900010F0004248BF4042B0FA80F310FA03F126
:1054A0000AD0C3F11D0303F580634FEA415002EBBC
:1054B000035202EBD12170474FF000007047B0FA61
:1054C00080F310FA03F10AD0C3F11D0303F58063E2
:1054D0004FEA41504FEA035202EBD12170474FF09F
:1054E0000000704751EA030C17D41CF5801F58BF09
:1054F000BCF5801F00F10680994218BF704708BFB5
:105500009042704707D711F5801F58BF13F5801FD1
:1055100019D499427047894270471CF5801F08D5FD
:10552000BCF5801FF7D58B4218BF704708BF824279
:1055300070474FF4001C1CEB410F38BF1CEB430FAE
:1055400001D28B42704770B500F0B2F89224490046
:105550004FF000514FF08053FFF736BEDFF848C1DF
:1055600070B51CEA111E1EBF1CEA13159EEA0C0F33
:1055700095EA0C0F00F06F8081EA030423EA4C13D4
:105580004EEAD47E21EA4C1141F4801143F4801399
:10559000AE44A1FB024CA0FB0365AEF17F7E361941
:1055A00055EB0C05A1FB034C4CF10003A0FB021CC6
:1055B00016EB0C06654153F10003094218BF46F093
:1055C000010613F4007F0BD14FEA03314FEA053097
:1055D000340341EA155140EA16506FF003020AE025
:1055E0004FEAC3214FEAC520F40241EA555140EA8F
:1055F00056506FF0020202EB2E4201EB025585EA93
:10560000CE710AD05FEA440C18BF24F0004450F178
:10561000000041F1000120EAD47040F2FE7C6245B6
:1056200000D270BDA84214BF4FF080444FF04044F8
:10563000002E08BF0024BEF1806FA8BFA1F1C041B9
:10564000BDE8704080F282804FF0000001F1C0415F
:1056500001F0004170479EEA0C0F0CEA131518BFC9
:1056600095EA0C0F06D04FF0000081EA030E0EF011
:10567000004170BD00F01CF88900013E00F007B841
:1056800000F009B84FEA430C5FEA5C5C08D081EA9D
:10569000030100F05BB84FEA410C5FEA5C5CF6D1B5
:1056A0004FF00000014970470000FF070000F87F3D
:1056B0000EF1020E2EF0030E5EF8046B364205D496
:1056C000012A43EB030515F5001F12D8012841EB11
:1056D000010C1CF5001F0CD80ED14FEAD17C15F53A
:1056E000001F0CEB4C0C0CF1020C08BF4CEBD37CF4
:1056F00004E04FF0080C01E04FEAD37C0CEB4C05C2
:1057000026FA05F606F00706B6F1040C06D20EEBF3
:10571000860CBDE870404CF0010C6047DFE80CF0EF
:10572000090B02024FF000414FF00000A1F50021EB
:1057300070BD19461046012851EB010418BFD4F57D
:10574000001484BF002001F0004170BD0808A0F5DE
:1057500000114FEA3101704753EA010C17D41CF5D0
:10576000801F58BFBCF5801F00F106808B4218BF18
:10577000704708BF8242704707D713F5801F58BF94
:1057800011F5801F19D48B4270479B4270471CF55E
:10579000801F08D5BCF5801FF7D5994218BF704708
:1057A00008BF904270474FF4001C1CEB430F38BFFA
:1057B0001CEB410F01D2994270470FB40CBC03BCE3
:1057C000FFF7C1BE91EA030F10B581F000413FF52C
:1057D00053AC83F0004300F0EFB800002DE9F04136
:1057E00001F5801CBCF5001FC0F2C3804FEA115CBC
:1057F00021EA0C510CF1FD0C41F480115FEA5C0CC4
:105800000CF5C07C01D3400049413DA4890241EA26
:10581000905187028E0E0A0CA45D04FB04F602FB75
:1058200006F6C6F14046A4FB0662F60D46EA42269D
:1058300006FB06F4A4FB01235242C3F1404338BFE8
:105840005B1EA6FB02420024E6FB0324D20B42EAC5
:105850004446A6FB0623A1FB02E2A3FB07E4A4182F
:105860004FF0000252F10002E3FB01426442C2F138
:10587000404E38BFAEF1010EA6FB04234FF00002EC
:10588000E6FB0E32A2FB03464FF00004B61954F1BA
:105890000004E2FB0264A1FB06E6A4FB07E816EBAA
:1058A00008064FF0000858F10008E4FB0168764252
:1058B000C8F1405838BFA8F10108A2FB06E4A3FBD9
:1058C00008E52D194FF0000454F10004E2FB0854E0
:1058D000A1FB05E6A7FB04E818EB06084FF000065D
:1058E00056F10006E1FB048618F1200556F100068A
:1058F000A809A8F11B08B10908F03F08B8F10A0F80
:1059000040EA86601CD901EB0C51BDE8F08100BF74
:10591000FCF5EEE8E2DDD8D3CFCBC7C3C0BDB9B646
:10592000B4B1AEACA9A7A5A3A19F9D9B9A9896954B
:105930009392908F8D8C8B898887868584838281D2
:10594000A0FB006800FB01F208EB4208B8EB8728D7
:1059500007D5341858EB0104D5D5401C51F100018E
:10596000D1E7341A78EB0104CDD4401E71F1000167
:10597000C9E75FEA4C0C5FEA9C5C0DD105D34FF0A0
:10598000000001F00041BDE8F081BDE8F04170B5D4
:10599000FFF78EFE6DDBFFBEBDE8F0414FF000006B
:1059A000004970470000F87F10B591EA030F48BF27
:1059B00083F000433FF560AB841A71EB030C07D210
:1059C00012198CF0004C43EB0C03001B61EB0C0133
:1059D000DFF8A4E14FEA1154A4EB135C1EEA430F75
:1059E00018BF9EEA445F00F0B08023EA6E03524283
:1059F00021EA0451C3EB6E0338BF5B1EDCF1200EBD
:105A000025D322FA0CFE10EB0E0043FA0CFE41EBFC
:105A10000E01CCF1200E03FA0EFE10EB0E0051F138
:105A20000001CCF1200E29D412FA0EF201EB045140
:105A3000BDE8104058BF7047401C1CBFB2F1004F7A
:105A4000704700280CBF491C20F00100704712EB82
:105A5000020E43EB030218BF4FF0010E4EEA420262
:105A6000ACF1200CDCF11E0E54D943FA0CFE10EB05
:105A70000E0051F1FF31CCF11E0ED5D50EF1010E05
:105A800012FA0EFE404141EB010101EB445C5FEA7A
:105A90005C5C10D910EBDE7001EB045138BFBEF135
:105AA000004FBDE8104018BF704700280CBF491CCC
:105AB00020F00100704730D24FEAD42C11F50011CC
:105AC00024F400641BD0B1FA81F20B3AA41AA41E8C
:105AD000D2F12003914030FA03F31943904001EBD7
